:020000040800F2
:100000000000052081340108D1340108D1340108F1
:10001000D1340108D1340108D134010800000000B6
:10002000000000000000000000000000D1340108C2
:10003000D134010800000000D1340108D5F30008D4
:10004000D1340108D1340108D1340108D134010878
:10005000D1340108D1340108E1F30008EDF30008C0
:10006000D1340108D1340108D1340108D134010858
:10007000D1340108D1340108D1340108D134010848
:10008000D1340108D1340108D1340108D134010838
:10009000D1340108D1340108D1340108D134010828
:1000A000D1340108D1340108D1340108D134010818
:1000B000D1340108D1340108D1340108D134010808
:1000C000D1340108D1340108D1340108D1340108F8
:1000D000D1340108D1340108D1340108D1340108E8
:1000E000F9F30008D1340108D1340108D1340108F2
:1000F000D1340108D1340108D1340108D1340108C8
:10010000D1340108D1340108D1340108D1340108B7
:10011000D1340108D1340108D1340108D1340108A7
:10012000D1340108D134010815F40008D134010894
:10013000D1340108D1340108D1340108D134010887
:10014000D1340108D1340108D1340108D134010877
:10015000D1340108D134010825F40008D134010854
:10016000D1340108D1340108D1340108D134010857
:10017000D1340108D1340108D13401080000000055
:10018000D1340108D1340108D1340108D134010837
:10019000D1340108D1340108D1340108D134010827
:1001A000D1340108D1340108D1340108D134010817
:1001B000D1340108D1340108D1340108D134010807
:0801C000D1340108D13401081B
:1001D00010B5054C237833B9044B13B10448AFF381
:1001E00000800123237010BD58050020000000008E
:1001F000C4A4010808B5034B1BB103490348AFF37E
:10020000008008BD000000005C050020C4A40108B7
:1002100070B44C1E4A2C2CD8DFE804F03C3C3C3C2B
:100220002B2B2B2B26263C26262626262626262644
:100230002626262B27272727272727273C2626263B
:1002400026262B26273D3C2B3C27273D2B2B2626DD
:100250003C3C3C3C3C263C3C263C2B2B2626262B7F
:100260002B2B2626263C3C00CAB144698569AC424A
:1002700002DB002070BC704704EB440506690134C2
:10028000AD00446174190CD071556260A3602046C2
:1002900070BC70471AB1002BE7D11846EAE7104648
:1002A000E8E72046E6E700BF2DE9F047C368B2F172
:1002B000000A04460F461A7815BF4FF01C084FF08D
:1002C00019084FF01D094FF01A0914BF1E261B26EE
:1002D0000D4612E0562A1BD04B2A22D1236BE16037
:1002E00006332363314600231A462046FFF790FF6A
:1002F0002860A0B1E3681A78051D722A03F1010194
:10030000E8D1226B01330932E36022634146EAE718
:10031000226B01330932E36022634946E3E7BDE81B
:10032000F087BAF1000F01D1462A02D02846BDE875
:10033000F087BD42FAD01D201E211C2207E01B2B96
:100340000BD0192B00D13A700437BD42EED03F6874
:100350003B781A2BF3D13870F6E73970F4E700BF19
:1003600010B4C3681C78522C0A460FD04F2C03D00F
:1003700008465DF8044B7047016B0331016320218F
:100380000133C3605DF8044B002341E7016B023188
:1003900001631F21F4E700BF002A4CD070B5054669
:1003A0000E4614462378013B4A2B2AD8DFE803F097
:1003B0003535353E2929262635353535353535351A
:1003C00035353535353535293535353535353535E9
:1003D00035352E2E353529353535352A35353535F2
:1003E00029263535353535353535353535352929F0
:1003F000352A2A2A2A29353535353500A468002CB6
:10040000D0D170BD6468002CCCD1FAE76268137853
:10041000052B03D1336801333360626831462846C7
:10042000FFF7BAFFA468002CBCD1EAE72B680133C0
:100430002B606268F2E770477AB32DE9F0410D4610
:100440000446D0F80011AF184FF0000809E00B4641
:10045000BD4201F10101C4F80011E65484F80461C1
:1004600019D0FF2915F8016BF1D1D4F8083184F8BF
:10047000FF80D4F80C2120469847D4F8203101336E
:10048000C4F8203100230121BD42C4F80011E65414
:1004900084F80461E5D1BDE8F081704730B40368A9
:1004A0001A786E2A044616D0A2F1300109291CD808
:1004B000002500200133236000EB800002EB4000A8
:1004C0001A78A2F130010929A0F13000F2D905B162
:1004D000404230BC7047591C01605A78A2F1300389
:1004E000092B02D80B460125E3E70020F1E700BF06
:1004F00043698269934214DA03EB43020169920073
:1005000010B501338C18436108D040238B540C3054
:10051000FFF7C4FF23466060184610BD2346184607
:1005200010BD00231846704710B5C3681A785F2ABB
:1005300004460BD06E2A06D00C30FFF7AFFFE368FD
:100540001A785F2A06D04FF0FF3010BD002001332B
:10055000E36010BD0130FAE738B5C3681A78542A51
:1005600001D0002038BD0133C3600446FFF7DCFF33
:10057000051EF6DBA26A6369A16901328B42A262A1
:10058000EFDA03EB430221690133920063618B18B8
:10059000E7D0052088545D60184638BD70B5044624
:1005A0000C30FFF77BFF061E4EDDE56863685B1BC2
:1005B0009E422CDCA268AB195207E36004D5AA5D09
:1005C000242A04BF0133E360092E0CDD08221F49F1
:1005D000284616F053FC30B92B7A2E2B1AD05F2BFD
:1005E00018D0242B16D06369A26993420FDA03EB6B
:1005F000430221690133920063618B1807D035B142
:100600000020885418465D609E60E06270BD002046
:10061000E06270BD6B7A4E2BE5D1236B6269A169F4
:1006200016339E1B8A422663F1DA02EB42032169EC
:100630009B000132C8186261E9D00025CD54044AFC
:10064000426015238360E3E7002070BDFCBB010816
:1006500008BC010838B5C3681A78422A0D4610D183
:1006600004460133E3602046FFF798FF2A4603461D
:100670004A212046FFF7CCFDE3681A78422A054656
:10068000EFD0284638BD00BFC2681378532B02D084
:100690000021084670472DE9F041531CC360537890
:1006A0008BB1931CC36054785F2C2DD10023026A58
:1006B00093421CD2826AC169013251F823108262CE
:1006C0000846BDE8F0811C46836803F00803002B50
:1006D00014BF012500250ED04D4B742203F1A80153
:1006E00001E013F81C2F944237D08B42F9D100213E
:1006F0000846BDE8F0810029EED0C3681B78433B73
:10070000012B98BF0125E7E7A4F13005EBB2092BD7
:1007100079D800210DE0303B9942E8D8C2681478BE
:10072000511C1CB1C16014785F2C14D0A4F13005A9
:100730001946EDB2A4F1410201EBC103092DD2B279
:1007400004EB8303E7D9192AD1D801EBC10204EBEA
:100750008203373BE0E70133A9E75C69002C49D00D
:10076000426981698A4243DA02EB4206D0F810E01E
:10077000D3F81880B60001321EEB0607426140D064
:100780004FF0180C0EF806C03E467C60C7F8088093
:10079000C66245B3DE681C69036B91422344036360
:1007A00024DD02EB42010569890001326B184261C8
:1007B00025D018226A5419465E609C60C3681B7875
:1007C000422B7FF47DAF0446FFF744FF00288ED014
:1007D000236A626A934210DAE1695A1C41F82300E5
:1007E000014622626CE75E689C68D5E70021E5E778
:1007F0000026CDE781694269CBE7014660E71946EB
:10080000DCE73E46C4E7A4F14103192B81D95BE73D
:10081000FCA4010838B5044629B9C3681A7832B176
:100820005A1CC2601978682919D0762901D0002095
:1008300038BD04F10C052846FFF730FEE3681A784E
:100840005F2AF4D10133E3602846FFF727FEE3680F
:100850001A785F2AEBD10133E360012038BD04F13F
:100860000C00FFF71BFEF2E7D0F810310246C3B1CF
:100870005A680B68906870B102782F2A0DD1002B4E
:1008800004DC09E002782F2A07D143B18068013BDC
:100890000028F7D17047704701D0002070474068AA
:1008A000704701211846C2F818117047002941D03D
:1008B00038B505460C4623784A2B27D8DFE803F0E5
:1008C0002E26262626302E2B2B26262626262626A4
:1008D00026262626262626262E26262626262626B0
:1008E000262626262626262E2626262626262626A0
:1008F000262E2B2626262626262626262626262E83
:10090000262626262E262E26262E2E0061682846EE
:10091000FFF7CCFF18B9A468002CCCD1002038BD5B
:10092000211D2846FFF7A0FF0028F7D003782F2BC2
:10093000F4D138BD00207047F0B553689468013396
:100940000B44A34283B015460E46074613D8EC6805
:100950000CB103B0F0BD95E80900324639461844A1
:1009600016F09BFA2B686A6833449C546B681E44EB
:100970006E6003B0F0BDD268002AEAD11CB9022B28
:100980004FF0020402D96400A342FCD82146286833
:1009900016F0EAFA10B12860AC60D8E70190286838
:1009A00016F044F8019B2B6001226B60AB60EA609B
:1009B000CFE700BF2DE9F04F044695B0002A00F0C4
:1009C000C380D0F81831002B40F0B68013780F4662
:1009D00015464B2B01F2EB81DFE813F06D094C0952
:1009E0004C09BF087B08CC09A209E409C7075408D1
:1009F0002D080608DF07D605AF057A055305100751
:100A0000E906C2069B0674064D062606FD05AD07DF
:100A1000AD07AD07A807A807A807A807A807A80754
:100A2000A80776077607A807A8073707DA07FD049F
:100A300091047604D403760494039403710347036A
:100A40002003F902F502C7024C00720412051704D4
:100A50001704420442041B04BE02B1025A023302CC
:100A6000F701D001A901E90983018A025C011001A3
:100A7000E600BC00AE683378372B65D16A685368EE
:100A800019684878632802F08B801178312902F0C8
:100A900060815368D149186807F042FD726818B93F
:100AA0001378032B02F0EF813946204603F048FA11
:100AB000D5F80480CA49D8F80430D3F800904846E5
:100AC00007F02EFD0646002841F0F087D4F800110B
:100AD000FF2902F07E824A1C5B23C4F80021635484
:100AE00084F80431AB6839469A68204602F07CFBF2
:100AF000D4F80011FF2902F07C825D234A1CC4F85F
:100B00000021635484F804316B681A78312A13D1B8
:100B10005B689A68012A0FD15B681B783E2B0BD16A
:100B2000D4F80011FF2902F0258329234A1CC4F8B8
:100B30000021635484F8043115B0BDE8F08FB8F19A
:100B4000000F01D0C4F810610123C4F8183115B0AA
:100B5000BDE8F08FA34E6A6802F046FB06F1080A72
:100B6000D4F800114FF000090AE00B460131B245FC
:100B7000C4F8001104F8038084F8048101F099821C
:100B8000FF2916F8018FF0D1D4F8083184F8FF90CE
:100B9000D4F80C2120469847D4F820310133C4F80A
:100BA000203101210023E2E78F4E6A6802F01CFB2E
:100BB00006F1050AD4F800114FF000090AE00B46CF
:100BC0000131B245C4F8001104F8038084F80481AF
:100BD00001F04782FF2916F8018BF0D1D4F80831D3
:100BE00084F8FF90D4F80C2120469847D4F820319F
:100BF0000133C4F8203101210023E2E76968FFF7DF
:100C000055FE4FF00009002802F04B8103782F2B8E
:100C100041F015834368002B01F01183806809F1CE
:100C200001090028F2D16B6800934FF0000B09F125
:100C3000FF33DA460193C4F81CB1009A39462046C6
:100C400002F0D2FA019B5B4541F3B680674DD4F8C0
:100C5000001105F1020809E00B460131A845C4F86E
:100C60000011E65484F8046101F0A680FF2915F80C
:100C7000016BF1D1D4F8083184F8FFA0D4F80C212D
:100C800020469847D4F820310133C4F8203101219F
:100C90000023E3E7564ED0F8001106F11A0A4FF090
:100CA00000090AE00B460131B245C4F8001104F80E
:100CB000038084F8048101F0E781FF2916F8018F91
:100CC000F0D1D4F8083184F8FF90D4F80C212046F4
:100CD0009847D4F820310133C4F820310121002392
:100CE000E2E7444ED0F8001106F10E094FF000087B
:100CF00009E00B460131B145C4F80011E75484F80E
:100D0000047101F0B080FF2916F8017FF1D1D4F809
:100D1000083184F8FF80D4F80C2120469847D4F895
:100D200020310133C4F8203101210023E3E7324EA2
:100D3000D0F8001106F1080A4FF000090AE00B464E
:100D40000131B245C4F8001104F8038084F804812D
:100D500001F0C580FF2916F8018FF0D1D4F80831D1
:100D600084F8FF90D4F80C2120469847D4F820311D
:100D70000133C4F8203101210023E2E71F4ED0F8EF
:100D8000001106F11C0A4FF000090AE00B46013180
:100D9000B245C4F8001104F8038084F8048101F01E
:100DA0005B80FF2916F8018FF0D1D4F8083184F860
:100DB000FF90D4F80C2120469847D4F82031013315
:100DC000C4F8203101210023E2E70D4ED0F80011D4
:100DD00006F11D0A4FF000091FE000BFD8BD010851
:100DE000DCBD01089BBE010820BC0108B0BD0108A4
:100DF0007BBD01088BBE01087BBE01085BBE0108FC
:100E00003BBE01080B460131B245C4F8001104F89D
:100E1000038084F8048101F0DA80FF2916F8018F3D
:100E2000F0D1D4F8083184F8FF90D4F80C21204692
:100E30009847D4F820310133C4F820310121002330
:100E4000E2E7CA4ED0F8001106F10A0A4FF0000995
:100E50000AE00B460131B245C4F8001104F80380E2
:100E600084F8048100F0E587FF2916F8018BF0D1A2
:100E7000D4F8083184F8FF90D4F80C212046984724
:100E8000D4F820310133C4F8203101210023E2E7F6
:100E90006A68B74904A816F06DFA04A807F04AFB7F
:100EA00000283FF449AE04ADD4F800112F184FF0DC
:100EB000000809E00B460131AF42C4F80011E654C6
:100EC00084F804613FF438AEFF2915F8016BF1D1C5
:100ED000D4F8083184F8FF80D4F80C2120469847D4
:100EE000D4F820310133C4F8203101210023E3E795
:100EF000A04ED0F8001106F1160A4FF000090AE0E2
:100F00000B460131B245C4F8001104F8038084F89F
:100F1000048101F05580FF2916F8018FF0D1D4F833
:100F2000083184F8FF90D4F80C2120469847D4F873
:100F300020310133C4F8203101210023E2E7D0F849
:100F400000112D79FF2901F06F844B1CC4F800318A
:100F5000655484F80451EFE56A6802F045F9AA681F
:100F60003946204602F040F9E6E56E68AD68337810
:100F7000312B01F0BB82332B41F0FE83D0F80031DE
:100F8000FF2B01F03187591C4FF0280EC4F80011D7
:100F9000321D394604F803E0204684F804E102F0EB
:100FA000BDFED4F80011FF2901F00D8729234A1C4A
:100FB000C4F80021635484F804312A463946204697
:100FC00002F0BEFFB8E56A6802F07CFFB4E56A4E45
:100FD000D0F8001106F1090A4FF000090AE00B46AB
:100FE0000131B245C4F8001104F8038084F804818B
:100FF00001F03080FF2916F8018FF0D1D4F80831C4
:1010000084F8FF90D4F80C2120469847D4F820317A
:101010000133C4F8203101210023E2E7564ED0F815
:10102000001106F1090A4FF000090AE00B460131F0
:10103000B245C4F8001104F8038084F8048101F07B
:101040003180FF2916F8018FF0D1D4F8083184F8E7
:10105000FF90D4F80C2120469847D4F82031013372
:10106000C4F8203101210023E2E7D5F804A0434D64
:10107000DAF80870D0F8001105F108084FF00009FF
:1010800009E00B460131A845C4F80011E65484F884
:10109000046100F05587FF2915F8016FF1D1D4F8EC
:1010A000083184F8FF90D4F80C2120469847D4F8F2
:1010B00020310133C4F8203101210023E3E76A68BD
:1010C000AE680AB102F090F8D4F80031FF2B01F0BD
:1010D00086845A1C7B25C4F800213946E5543246E3
:1010E000204684F8045102F07FF8D4F80011FF295B
:1010F00001F069834A1C7D23C4F80021635484F8FD
:10110000043119E56A680AB102F06EF8AB68002B89
:101110003FF412ADD4F80061FD2E01F20D83DFF82B
:1011200060804FF0000A08F1020B314609E00B46DF
:101130000131C345C4F80011E65484F8046101F09C
:101140006080FF2918F8016BF1D1D4F8083184F8D8
:10115000FFA0D4F80C2120469847D4F82031013361
:10116000C4F8203101210023E3E700BF1CBE0108C1
:101170003CBC01087FBD0108BFBD0108B3BD01082B
:10118000B0BD0108B5F90A30002B41F088816A68CA
:10119000D34B5168994201F07E813946204602F0D6
:1011A00023F8D4F80031FF2B01F0C085591C202210
:1011B000C4F80011E25484F80421B5F90830002B7A
:1011C00001F00081C74D4FF00008AF1D09E00B464C
:1011D0000131BD42C4F80011E65484F804613FF4C3
:1011E000ABACFF2915F8016BF1D1D4F8083184F8C4
:1011F000FF80D4F80C2120469847D4F820310133E1
:10120000C4F8203101210023E3E70123C0F818319D
:1012100092E4B54ED0F8001106F10E0A4FF0000925
:101220000AE00B460131B245C4F8001104F803800E
:1012300084F8048100F07D86FF2916F8018FF0D133
:10124000D4F8083184F8FF90D4F80C212046984750
:10125000D4F820310133C4F8203101210023E2E722
:101260006A681178272901F0A8810026D4F80011B6
:10127000FF2901F02A844A1C2823C4F80021635462
:1012800084F804316A683946204601F0ADFFD4F88D
:101290000031FF2B01F0EF83591C2922C4F8001103
:1012A000E25484F804212B783C2B01F08082082E34
:1012B00001F02382AA683946204601F095FF3BE4FD
:1012C0000123C0F8183137E414ABD0F8142143F8E7
:1012D000402DC0F81431AA68D0F8103107930026C9
:1012E0000595069601F080FF069B23B92A463946EC
:1012F000204601F089FF049BC4F814311CE40DF171
:101300005009D0F814B149F840BD0022D0F810318E
:10131000CDF800B05946C0F8149105950692079390
:10132000002901F087854B681B78193B022B01F2DD
:101330008185AC464FF001080E464D4604E07368C7
:101340001B78193B022B1DD8B3684FEA081E14AA5C
:1013500002EB0E0B9BB9B8F1030F01F2CE8296E8B7
:101360000F00ABF1400A8AE80F004BF8405C012304
:1013700009EB0E05C4F8145108F10108B360366892
:10138000002EDCD1DCF8082039462046654601F005
:101390002BFF069B009AC4F81421002B7FF4CCABE2
:1013A000B8F1010F0ED009EB081959F80C2C08F10F
:1013B000FF383946204601F027FFB8F1010FA9F1A7
:1013C0001009F2D12A1D3946D4F81431204602F012
:1013D000D5FAFFF7B1BB8B0601F14A806B681BB1F0
:1013E00017F0400301F0CC8227F0600705F10802F6
:1013F0003946D4F81431204602F09CFBFFF79CBB21
:10140000AB681A78392A7FF49FAB9A6811783A2929
:101410007FF49AABD5F804903449D9F80400D3F896
:10142000048000685668956807F07AF8002801F093
:101430000F8504222E492046FEF7FEFFD8F804301F
:1014400083B139464246204602F07AFDD4F80011B5
:10145000FF2901F02A8620234A1CC4F80021635486
:1014600084F8043132463946204601F0BDFE002D95
:101470003FF462AB2A463946204602F061FDFFF791
:101480005BBB1C4ED0F8001106F1110A4FF00009A9
:101490000AE00B4601315645C4F8001104F80380F8
:1014A00084F8048100F0BE84FF2916F8018FF0D182
:1014B000D4F8083184F8FF90D4F80C2120469847DE
:1014C000D4F820310133C4F8203101210023E2E7B0
:1014D000094ED0F8001106F1150A4FF0000918E086
:1014E00060A60108A0BD01080BBE0108E0BD01080F
:1014F000E8BD0108C7BC0108C3BC01080B460131A7
:10150000B245C4F8001104F8038084F8048100F0A7
:101510008284FF2916F8018FF0D1D4F8083184F8BD
:10152000FF90D4F80C2120469847D4F8203101339D
:10153000C4F8203101210023E2E7DA4ED0F800118F
:1015400006F1100A4FF000090AE00B460131B245DE
:10155000C4F8001104F8038084F8048100F0548476
:10156000FF2916F8018FF0D1D4F8083184F8FF90E4
:10157000D4F80C2120469847D4F820310133C4F820
:10158000203101210023E2E7C74ED0F8001106F117
:10159000120A4FF000090AE00B460131B245C4F8C7
:1015A000001104F8038084F8048100F0D585FF2938
:1015B00016F8018FF0D1D4F8083184F8FF90D4F8F0
:1015C0000C2120469847D4F820310133C4F820314B
:1015D00001210023E2E7AF686D68002F3FF4ACAA59
:1015E000D0F800112F444FF0000809E00B460131FC
:1015F000AF42C4F80011E65484F804613FF49CAA99
:10160000FF2915F8016BF1D1D4F8083184F8FF8077
:10161000D4F80C2120469847D4F820310133C4F87F
:10162000203101210023E3E7A04ED0F8001106F19C
:10163000110A4FF000090AE00B460131B245C4F827
:10164000001104F8038084F8048100F08C85FF29E0
:1016500016F8018FF0D1D4F8083184F8FF90D4F84F
:101660000C2120469847D4F820310133C4F82031AA
:1016700001210023E2E78E4ED0F8001106F1150A91
:101680004FF000090AE00B460131B245C4F80011E1
:1016900004F8038084F8048100F03385FF2916F8EC
:1016A000018FF0D1D4F8083184F8FF90D4F80C21E0
:1016B00020469847D4F820310133C4F82031012165
:1016C0000023E2E77B4ED0F8001106F1190A4FF033
:1016D00000090AE00B460131B245C4F8001104F8D4
:1016E000038084F8048100F04585FF2916F8018FF6
:1016F000F0D1D4F8083184F8FF90D4F80C212046BA
:101700009847D4F820310133C4F820310121002357
:10171000E2E7694ED0F8001106F1160A4FF0000911
:101720000AE00B460131B245C4F8001104F8038009
:1017300084F8048100F0D784FF2916F8018FF0D1D6
:10174000D4F8083184F8FF90D4F80C21204698474B
:10175000D4F820310133C4F8203101210023E2E71D
:10176000564ED0F8001106F1130A4FF000090AE0B6
:101770000B4601315645C4F8001104F8038084F883
:10178000048100F0B784FF2916F8018FF0D1D4F856
:10179000083184F8FF90D4F80C2120469847D4F8FB
:1017A00020310133C4F8203101210023E2E7444E07
:1017B000D0F8001106F10F0A4FF000090AE00B46BD
:1017C00001315645C4F8001104F8038084F80481FF
:1017D00000F00C83FF2916F8018FF0D1D4F80831FE
:1017E00084F8FF90D4F80C2120469847D4F8203193
:1017F0000133C4F8203101210023E2E7314ED0F853
:10180000001106F11A0A4FF000090AE00B460131F7
:101810005645C4F8001104F8038084F8048100F0F0
:10182000EC82FF2916F8018FF0D1D4F8083184F842
:10183000FF90D4F80C2120469847D4F8203101338A
:10184000C4F8203101210023E2E711F0040740F041
:1018500039856A6853681568002B3FF46DA9D0F884
:10186000001105EB030809E00B4601314545C4F8BA
:101870000011E65484F804613FF45EA9FF2915F8CD
:10188000016BF1D1D4F8083184F8FF70D4F80C2141
:1018900020469847D4F820310133C4F82031012183
:1018A0000023E3E7AFBC01089BBC010867BD01084A
:1018B0004FBD010833BD01081BBD010807BD01086C
:1018C000F7BC0108DBBC010868680378052B00F051
:1018D00099864FF00008232B00F096852A789A42CB
:1018E00000F09285242B01F08D80D4F81401D4F8F7
:1018F0001021059514AB002143F8400D0691C4F862
:10190000143107926A683946204601F06DFC069B47
:10191000002B00F08D84049BC4F81431B8F1000F43
:101920003FF40AA9C4F81061FFF706B9D0F8140112
:101930004FF00008DBE7D0F814C1BCF1000F01F054
:1019400021836246916851B950680078A0F1190E60
:10195000BEF1020F00F20587834200F0068712688D
:10196000002AEFD160469046C1E7D0F80011FF2968
:1019700000F06B874A1C7E23C4F80021635484F86E
:1019800004313946AA68204601F02EFCFFF7D4B88E
:101990006A6801F029FCFFF7CFB8DD4ED0F80011DE
:1019A00006F10D0A4FF000090AE00B460131B2457D
:1019B000C4F8001104F8038084F8048100F0E8837F
:1019C000FF2916F8018BF0D1D4F8083184F8FF9084
:1019D000D4F80C2120469847D4F820310133C4F8BC
:1019E000203101210023E2E7CA4ED0F8001106F1B0
:1019F000180A4FF000090AE00B460131B245C4F85D
:101A0000001104F8038084F8048100F0C883FF29E2
:101A100016F8018FF0D1D4F8083184F8FF90D4F88B
:101A20000C2120469847D4F820310133C4F82031E6
:101A300001210023E2E7B84ED0F8001106F1080AB0
:101A40004FF000090AE00B460131B245C4F800111D
:101A500004F8038084F8048100F03E83FF2916F81F
:101A6000018FF0D1D4F8083184F8FF90D4F80C211C
:101A700020469847D4F820310133C4F820310121A1
:101A80000023E2E7A54ED0F8001106F10B0A4FF053
:101A900000090AE00B460131B245C4F8001104F810
:101AA000038084F8048100F09A81FF2916F8018BE5
:101AB000F0D1D4F8083184F8FF90D4F80C212046F6
:101AC0009847D4F820310133C4F820310121002394
:101AD000E2E70023D0F81491D0F84081C0F8143127
:101AE000C0F840514A076E6805D533781BB9B26813
:101AF000062A01F08D8032463946204601F074FBFB
:101B000094F804313C2B00F0EA85D4F80031FF2B27
:101B100000F09E87591C3C22C4F80011E25484F85E
:101B200004213946AA68204601F05EFB94F804318E
:101B30003E2B00F0C685D4F80031FF2B00F07587EE
:101B4000591C3E22C4F80011E25484F80421C4F860
:101B50001491C4F84081FEF7EFBF0022D0F8143191
:101B6000C0F814216E680093002E00F033810DF14F
:101B70001009D0F810C1964610464B4631781A60CD
:101B8000A1F11C0ABAF1040FC4F814315E60986028
:101B9000C3F80CC01A460EF1010803F1100340F21D
:101BA0001281042901F09581022937D1D6F808B0B5
:101BB0009BF80030452B08BFDBF804B09BF80030E1
:101BC0001C3B042B2AD8B8F1040F00F003812B46EC
:101BD00009EB0E1EB2465D4666469B46A446744619
:101BE00003E0B8F1040F01F0B98194E80F0004F1AB
:101BF000100E8EE80F00234600221C615D609A6083
:101C0000DE60CCF814E16D682B781C3B042B744625
:101C100008F10108E5D9564664465D46AA6839468A
:101C2000204601F0E1FA3378042B01F0928109EBB0
:101C3000081946462025B84659F8087C013E87B960
:101C4000D4F80011FF2901F074814B1CC4F8003155
:101C500059F80C2C65542046414684F8045101F093
:101C6000D3FAA9F11009002EE6D1009BC4F8143173
:101C7000FEF762BF6A6801F0B7FA17F0040900F0D6
:101C80007784D4F80011FF2900F0D5874A1C2E2351
:101C9000C4F80021635484F80431D5F8088098F81A
:101CA0000030452B00F02E8642463946204601F092
:101CB0009BFAFEF741BF11F0040740F02D83AB689B
:101CC0006D68002B3EF438AFD0F8001105EB030827
:101CD00009E00B460131A845C4F80011E65484F828
:101CE00004613EF429AFFF2915F8016BF1D1D4F856
:101CF000083184F8FF70D4F80C2120469847D4F8B6
:101D000020310133C4F8203101210023E3E700BF73
:101D10008CBC010867BC01085BBC010850BC010811
:101D20006F68002F00F07583DB4DD0F8001105F1CE
:101D300006094FF0000809E00B4601314D45C4F893
:101D40000011E65484F8046100F08182FF2915F83F
:101D5000016BF1D1D4F8083184F8FF80D4F80C215C
:101D600020469847D4F820310133C4F820310121AE
:101D70000023E3E7291DFEF777FD00283EF4E4AEDB
:101D800003782F2B00F0FD84D4F810512B68C4F891
:101D9000103102463946204601F026FAC4F81051A7
:101DA000FEF7CABEAA6801F01FFAFEF7C5BE0123FE
:101DB000C0F81831FEF7C0BE0BF1010BCB457EF425
:101DC0003AAFFEF7B9BE7668C6461EB1BEF1040F43
:101DD0007FF4D4AE0123C4F81831FEF7ADBE6A68B3
:101DE0003946204601F000FAFEF7A6BE6A68394679
:101DF000204601F0F9F9FEF79FBE6A683946204691
:101E000001F0F2F9FEF798BE6A683946204601F003
:101E1000EBF9FEF791BE6A683946204601F0E4F915
:101E2000FEF78ABE6A683946204601F0DDF9FEF702
:101E300083BE39466A68204601F0D6F9D4F800110D
:101E4000FF2900F0D2844A1C2923C4F800216354DE
:101E500084F80431FEF770BE6A683946204601F006
:101E6000C3F9FEF769BE6A688C49013204A815F00F
:101E700081FA04A806F05EFB18B304ADD4F8001193
:101E80002F184FF0000808E00B460131AF42C4F8AC
:101E90000011E65484F8046115D0FF2915F8016B90
:101EA000F2D1D4F8083184F8FF80D4F80C21204610
:101EB0009847D4F820310133C4F8203101210023A0
:101EC000E4E7D4F80011FF2900F0D0844A1C7D23F8
:101ED000C4F80021635484F80431FEF72DBE704E1F
:101EE0006A683946204601F07FF906F10209D4F804
:101EF00000114FF0000808E00B460131B145C4F86D
:101F00000011E75484F8047168D0FF2916F8017BAA
:101F1000F2D1D4F8083184F8FF80D4F80C2120469F
:101F20009847D4F820310133C4F82031012100232F
:101F3000E4E76A683946204601F056F9FEF7FCBD31
:101F4000DAF804502B78613B192B0BD8FF2900F0ED
:101F5000298720234A1CC4F80021635484F80431E3
:101F6000DAF80450EB1913F8013C202B08BF07F1F5
:101F7000FF37002F3EF4E0ADD4F800112F444FF0AE
:101F8000000809E00B460131AF42C4F80011E654E5
:101F900084F804613EF4D0ADFF2915F8016BF1D14E
:101FA000D4F8083184F8FF80D4F80C2120469847F3
:101FB000D4F820310133C4F8203101210023E3E7B4
:101FC0006A683946204601F00FF9FEF7B5BD6A6828
:101FD0003946204601F008F9FEF7AEBDAA682F4940
:101FE000013204A815F0C6F904A806F0A3FA18B344
:101FF00004ADD4F800112F184FF0000808E00B468C
:102000000131AF42C4F80011E65484F8046115D0E0
:10201000FF2915F8016BF2D1D4F8083184F8FF805C
:10202000D4F80C2120469847D4F820310133C4F865
:10203000203101210023E4E7D4F80011FF2900F04A
:102040004A844A1C7D23C4F80021635484F8043177
:10205000FEF772BD2A1D3946204601F05FFEFEF7ED
:102060006BBD3946AA68204601F0BEF8D4F80011CD
:10207000FF2900F01E844A1C5D23C4F8002163542C
:1020800084F80431FEF758BD6A683946204601F0ED
:10209000ABF8FEF751BD00BF34BE01083CBC0108DF
:1020A00088BE0108AA683946204601F09DF8FEF76F
:1020B00043BD3946AA68204601F096F8D4F80011CD
:1020C000FF2900F0E5834A1C5D23C4F80021635416
:1020D00084F80431FEF730BD6A683946204601F0C5
:1020E00083F8FEF729BD6A683946204601F07CF87E
:1020F000FEF722BD6A683946204601F075F8FEF702
:102100001BBDD64EAA683946204601F06DF806F18F
:10211000050AD4F800114FF0000909E00B4601311F
:10212000B245C4F8001104F8038084F8048128D073
:10213000FF2916F8018BF1D1D4F8083184F8FF900B
:10214000D4F80C2120469847D4F820310133C4F844
:10215000203101210023E3E76A683946204601F077
:1021600043F8FEF7E9BC6A683946204601F03CF8BE
:10217000FEF7E2BC6A683946204601F035F8FEF702
:10218000DBBC6A683946204601F02EF8FEF7D4BC65
:102190006A683946204601F027F8FEF7CDBCB04EFC
:1021A0006A683946204601F01FF806F1040AD4F89F
:1021B00000114FF0000909E00B4601315645C4F803
:1021C000001104F8038084F8048113D0FF2916F865
:1021D000018BF1D1D4F8083184F8FF90D4F80C21A8
:1021E00020469847D4F820310133C4F8203101212A
:1021F0000023E3E7AA683946204600F0F5FFFEF722
:102200009BBCAA68D4F820510E462046394600F0FF
:10221000EBFFD4F820319D427EF48EACD4F800312F
:10222000B3427EF489AC023EC4F80061FEF784BC80
:102230002A463946204600F0E7FFFFF76CBB6B6883
:102240000093B9F1000F7EF4F0ACFEF775BC3A468E
:1022500004A8844915F08EF804A806F06BF918B3A9
:1022600004ADD4F800112F184FF0000808E00B4619
:102270000131BD42C4F80011E65484F8046115D060
:10228000FF2915F8016BF2D1D4F8083184F8FF80EA
:10229000D4F80C2120469847D4F820310133C4F8F3
:1022A000203101210023E4E7D4F80011FF2900F0D8
:1022B0001F844A1C7D23C4F80021635484F8043130
:1022C000FEF73ABC6B68DF689D68002F3EF434ACC3
:1022D000D0F800112F444FF0000809E00B460131FF
:1022E000AF42C4F80011E65484F804613EF424AC13
:1022F000FF2915F8016BF1D1D4F8083184F8FF807B
:10230000D4F80C2120469847D4F820310133C4F882
:10231000203101210023E3E76E68AF683744BE42F5
:10232000BEF40AAC4FF000080DE0D4F80011FF290C
:1023300038D04B1CC4F80031655484F80451013680
:10234000B7427EF6F9ABBB1B032B3578EDDD5F2D75
:10235000EBD172785F2AE8D1B378552B01D01546BE
:10236000E3E7F31C9F42FAD9002006E0A5F137020B
:10237000BB4202EB001000F05A85994613F8015B4E
:10238000A5F13002D1B20929A5F1410EF0D9BEF173
:10239000050FA5F16102E9D9052A00F29C86A5F195
:1023A0005702E5E7D4F8083184F8FF80D4F80C210F
:1023B00020469847D4F820310133C4F82031002159
:1023C0000123B7E7284D9846AF1D09E00B460131C0
:1023D000AF42C4F80011E65484F804613EF4ACAB9B
:1023E000FF2915F8016BF1D1D4F8083184F8FF808A
:1023F000D4F80C2120469847D4F820310133C4F892
:10240000203101210023E3E70546D4F81401FFF74A
:102410006EBA164DD0F8001105F1040809E00B461C
:1024200001314545C4F80011E65484F804613EF4D6
:1024300083ABFF2915F8016BF1D1D4F8083184F88A
:10244000FF70D4F80C2120469847D4F8203101338E
:10245000C4F8203101210023E3E700BF48BD010893
:1024600084BC01083CBC0108A8BD01082CBE0108C1
:1024700021F0600705F108023946D0F8143101F067
:1024800059FB6A68002A3EF457AB3946204600F0F3
:10249000ABFEFEF751BBD4F80011FEF78EBEDC4E4A
:1024A000D0F8001106F1050A4FF000090AE00B46CA
:1024B00001315645C4F8001104F8038084F8048102
:1024C0003EF465AEFF2916F8018BF0D1D4F808313F
:1024D00084F8FF90D4F80C2120469847D4F8203196
:1024E0000133C4F8203101210023E2E77368C949B0
:1024F000D3F80080404606F013F82B7810B9032B70
:1025000000F0DB84372B00F08585394620463246C3
:1025100001F0D8FCC049404606F002F8002800F05F
:1025200057824046BD4905F0FBFF064600287EF471
:1025300044ADD4F80031FF2B00F06884581C2826E5
:10254000C4F800013946E6542A46204684F804615E
:1025500000F04AFED4F80011FF2900F0D6834A1C8F
:102560002923C4F80021635484F80431FEF7E4BA47
:10257000AB4ED4F8001106F1020A0AE00B46013115
:102580005645C4F8001104F8038084F804813FF430
:1025900084ABFF2916F8018BF0D1D4F8083184F808
:1025A000FF90D4F80C2120469847D4F8203101330D
:1025B000C4F8203101210023E2E75268167C002E86
:1025C0003EF454AE062E40F25783072E7EF44EAEF4
:1025D000AA68117800297EF449AE916801297EF439
:1025E00045AE3B2B7EF442AE53681B78302B00F097
:1025F000BB85312B7EF43AAE04228A49FDF71CFFDD
:10260000FEF79ABAD4F82CC1D4F82811BCF1000F07
:1026100014DD0B68984200F05C8501F1080200238C
:10262000A64604E051F83340A04200F07382013323
:102630009C45904602F10802F4D17446D4F830313A
:102640009C4580F2F5840CF10103D4F81081C4F8A4
:102650002C3101EBCC0341F83C0003F1040EB8F13E
:10266000000F21D0D4F83831D4F83C11994240F30E
:10267000DF844FEAC30C814602E0994200F0D68421
:10268000D4F83421D8F80400624401335060CEF805
:102690000020D8F800800CF1080C9646B8F1000F25
:1026A000EBD14846C4F838314FF00008011DCEF890
:1026B00000802046FEF7D8F8002840F04682FEF75A
:1026C00043BAD4F80011FF2900F0118420224B1CDA
:1026D000C4F80031625484F80421FFF72EBAD4F80C
:1026E0000011FF2900F03D8420224B1CC4F800316A
:1026F000625484F80421FFF70ABAD4F80011FF29C4
:1027000000F044844A1C5B23C4F80021635484F81D
:1027100004313946AA68204600F066FDD4F800115D
:10272000FF2900F02F835D234A1CC4F80021635465
:1027300084F80431FEF700BA4FF0000804F8068070
:102740003146D4F80831D4F80C2120469847D4F803
:102750002031C4F8008101334646C4F82031FEF729
:10276000DEBC60468846FFF7C2B86A683946204634
:1027700000F03AFDFEF7E0B9324601F0A3FBFEF7A8
:102780001CBCD4F81C3108E08068013B00283EF4F2
:10279000DBA902782F2A7EF4D7A9002BF4DC7EF483
:1027A000D3A9406800287FF4EFAAFEF7CDB9FF292E
:1027B00000F0AE832D234A1CC4F80021635484F832
:1027C0000431FEF774BD0025D4F80831D4F80C218B
:1027D00084F8FF5020469847D4F820310133294629
:1027E000C4F820310122FEF786BC0025D4F8083158
:1027F000D4F80C2184F8FF5020469847D4F82031B3
:1028000001332946C4F820310122FFF71DBB00BF68
:1028100098BD0108CCBD0108D0BD0108E8C0010881
:1028200028BC010804BE01080026D0F8083180F851
:10283000FF60D0F80C219847D4F820310133C4F858
:10284000203131460123FEF781BB0026D0F8083144
:10285000D0F80C2180F8FF609847D4F8203101337C
:102860003146C4F820310122FFF785B80025D4F89D
:102870000831D4F80C2184F8FF5020469847D4F84A
:10288000203101332946C4F820310122FFF71FBB54
:102890000025D4F80831D4F80C2184F8FF502046E4
:1028A0009847D4F8203101332946C4F82031012259
:1028B0000AE40025D4F80831D4F80C2184F8FF503C
:1028C00020469847D4F8203101332946C4F82031F6
:1028D0000122FFF7D1BB0025D4F80831D4F80C2130
:1028E00084F8FF5020469847D4F820310133294618
:1028F000C4F820310122FFF7A5BB0123C4F8183129
:10290000FEF71AB90D22D5492046FDF795FDD8F8F6
:102910000820D349013204A814F02CFD04A805F0C6
:1029200009FE20B304ADD4F8001105EB000A4FF006
:10293000000908E00B460131AA45C4F80011E6542D
:1029400084F8046113D0FF2915F8016BF2D1D4F893
:10295000083184F8FF90D4F80C2120469847D4F829
:1029600020310133C4F8203101210023E4E70322A0
:10297000BC492046FDF760FDD8F80480FFF794B904
:1029800014AAD4F8141142F8401D27F06007C4F8C7
:102990001421D4F810616A680693394620460796D8
:1029A000059500F021FC069E049BC4F81431002E0E
:1029B0007EF4C2A8D4F80011FF2900F04983202337
:1029C0004A1CC4F80021635484F80431FEF70EBD9C
:1029D0002A463946204600F007FCFEF7ADB8002530
:1029E0001946D4F80C21D4F8083184F8FF50204659
:1029F0009847D4F820315A1CC4F820212B460122D4
:102A0000FEF768BB14ABD4F81411426843F8401DBC
:102A10000020D4F810110595C4F8143106900791E0
:102A2000002A7EF470AFFEF76DBF00251946D4F87A
:102A30000C21D4F8083184F8FF5020469847D4F888
:102A400020315A1CC4F820212B460121FFF779B808
:102A500000261946D4F80C21D4F8083184F8FF6018
:102A600020469847D4F820315A1CC4F82021334618
:102A70000121FFF750B80022194684F8FF20D4F84E
:102A80000831D4F80C21204698472923237084F874
:102A900004312A78D4F82031012101333C2AC4F8CA
:102AA0002031C4F800117EF402AC83E648466E493A
:102AB00005F036FD002840F01482AB6839469A686C
:102AC000204601F03DFAFEF71FB84FF00008D4F899
:102AD0000831D4F80C2184F8FF8020469847D4F8B8
:102AE000203101334146C4F820310122FEF7C4BB36
:102AF0000025D4F80831D4F80C2184F8FF50204682
:102B00009847D4F8203101332946C4F820310122F6
:102B1000FFF7D0BB7446D4F8241189B30A689042F9
:102B20000AD00B4604E05B6853B31A68904203D0A6
:102B30009542F8D19942F6D0011D2046FDF794FE4A
:102B40004FF0000800283DF4FFAF03782F2B7EF4F0
:102B5000C2AED4F81C3108E08068013B00283DF487
:102B6000EEAF02782F2A7DF4EAAF002BF4DC7DF47F
:102B7000E6AF406800283DF4E2AF0378FEF7ABBE55
:102B8000D8F80430D4F81061C4F81031011D204683
:102B9000FDF76AFE00283DF4D5AF4FF00108D4E7F9
:102BA0000978A1F16300012803D9723901293DF6A2
:102BB0006CAF3946204601F085F9D4F80011FF29A1
:102BC00000F063824A1C3C23C4F80021635484F85B
:102BD0000431AB6839465A68204600F005FB0222F2
:102BE00022492046FDF728FCAB6839469A68204602
:102BF00000F0FAFAD4F80011FF2900F0D881292357
:102C00004A1CC4F80021635484F80431FDF794BFD2
:102C10001749706814F006FE00287EF46CAFAA68AD
:102C20003946204600F0E0FA022212492046FDF71C
:102C300003FCFEF78CBF0026D4F80831D4F80C2131
:102C400084F8FF6020469847D4F82031013331469C
:102C5000C4F820310122FFF71AB800BF2CBC0108CC
:102C60003CBC010840BC0108D8BD0108D4BD010826
:102C700044BC01084CBC0108AA6892F80080B8F175
:102C8000000F7EF4F3AA3C2B00F0F381AA683946CA
:102C90002046023E00F0A8FA042E3DF64DAFDFE8D4
:102CA00006F02618110A030020460322E349FDF727
:102CB000C3FBFDF741BF20460222E149FDF7BCFB03
:102CC000FDF73ABF20460222DE49FDF7B5FBFDF7CE
:102CD00033BFD4F80011FF2900F05F826C234A1C37
:102CE000C4F80021635484F80431FDF725BFD4F8FB
:102CF0000011FF2900F0638275234A1CC4F80021EB
:102D0000635484F80431FDF717BF0025D4F8083167
:102D1000D4F80C2184F8FF5020469847D4F820318D
:102D200001332946C4F82031012219E4002619464E
:102D3000D4F80C21D4F8083184F8FF602046984775
:102D4000D4F820315A1CC4F8202133460121FEF763
:102D50002EBA996801297DF49CAE5B681B783E2BE6
:102D60007DF497AED4F80011FF2900F0EB814A1CE6
:102D70002823C4F80021635484F804316A68AE68DB
:102D8000FDF787BE0025D4F8083184F8FF50D4F849
:102D90000C2120469847D4F8203101332946C4F845
:102DA0002031C0E40025D4F8083184F8FF50D4F86D
:102DB0000C2120469847D4F8203101332946C4F825
:102DC0002031FFF7C6B80026D4F8083184F8FF6038
:102DD000D4F80C2120469847D4F8203101333146ED
:102DE000C4F82031FEF7E2B84FF000081946D0F8D9
:102DF0000C21D0F8083180F8FF809847D4F82031B2
:102E00005A1CC4F820214346FEF7BDB884F8FF00E1
:102E10001946D4F80C21D4F8083120469847D4F844
:102E200020315A1CC4F820213346FFF787BB5F25A9
:102E3000FFF77BBAAA683946204600F0D5F9069B11
:102E4000009AC4F81421002B3EF4BCAAFDF774BE0E
:102E500042463946204601F073F84A463946204634
:102E600001F030F832463946204601F069F8204634
:102E700003227549FDF7E0FA2A463946204601F05B
:102E80005FF8FDF759BE93681B78292B1CBF0123FF
:102E9000C4F8183152683946204601F051F8FDF760
:102EA00007BE6A683946204601F04AF820460322E8
:102EB0006649FDF7C1FAFDF73FBE6B681A78012A33
:102EC0007FF423ABAA681278292A08BF1D46FFF7B2
:102ED0001CBB14AB039643F848CDC4F81031FEF781
:102EE0009DBE42463946204600F0ECFFE5E5002550
:102EF000D4F8083184F8FF50D4F80C2120469847C4
:102F0000D4F8203101332946C4F82031FFF7DEBB65
:102F10004FF00008D4F8083184F8FF80D4F80C2171
:102F200020469847D4F8203101334146C4F8203177
:102F300040E4D4F8083184F8FF70D4F80C2120461E
:102F40009847D4F8203101333946C4F82031FEF7D0
:102F50007CBE029BC4F81031FEF769BE6446FEF7E2
:102F600039BF0026D4F8083184F8FF60D4F80C216A
:102F700020469847D4F8203101333146C4F8203137
:102F8000FFF7B2BB6046E046FEF7B1BC0026D4F8BE
:102F9000083184F8FF60D4F80C2120469847D4F813
:102FA000203101333146C4F82031FFF7ABBB002597
:102FB000D4F8083184F8FF50D4F80C212046984703
:102FC000D4F82031C4F8005101332946C4F8203127
:102FD00015E684F8FF00D4F80831D4F80C21204617
:102FE0009847D4F8203101333146C4F82031FDF739
:102FF00072BD0026D4F8083184F8FF60D4F80C21A3
:1030000020469847D4F8203101333146C4F82031A6
:10301000FDF773BD6A683946204600F091FF3246DD
:103020003946204600F04EFFFDF786BDC4F8381142
:103030000123C4F81831FDF77FBD00BFF8BD0108BA
:10304000F4BD0108F0BD0108E4BD010828BE010877
:10305000D4F8083184F8FF60D4F80C212046984752
:10306000D4F82031C4F8006101333146C4F820316E
:10307000A5E4D0F80011FF2954D02D234A1CC4F830
:103080000021635484F8043100E60026D4F80831A6
:1030900084F8FF60D4F80C2120469847D4F82031FA
:1030A00001333146C4F820318CE54FF00008D4F8E4
:1030B000083184F8FF80D4F80C2120469847D4F8D2
:1030C0002031C4F8008101334146C4F82031FEF7B5
:1030D000C2B988461FE54F457FF6A9AE5F2D7FF444
:1030E000A6AEFF283FF621A9D4F80011FF29C5B2EA
:1030F0000FD1D4F8083184F8FF80D4F80C21204691
:103100009847D4F82031C4F800810133C4F8203145
:1031100000214B1CC4F800314E46655484F804511C
:10312000FFF70DB9D0F8083180F8FF80D0F80C21F6
:103130009847D4F82031C4F8008101334146C4F8DF
:1031400020319AE70026D4F8083184F8FF60D4F8DB
:103150000C2120469847D4F82031C4F8006101338F
:103160003146C4F8203102E605221E49FDF764F914
:10317000FDF7E2BC0025D4F8083184F8FF50D4F8FC
:103180000C2120469847D4F82031C4F8005101336F
:103190002946C4F82031FDF7C8BC0025D4F8083111
:1031A00084F8FF50D4F80C2120469847D4F82031F9
:1031B000C4F8005101332946C4F820318EE50025BA
:1031C000D4F8083184F8FF50D4F80C2120469847F1
:1031D000D4F82031C4F8005101332946C4F8203115
:1031E0008AE500BFFCBD010810B5D0F8243182B0DB
:1031F000C0F824D104468DE80C00FDF7DBFB019BF1
:10320000C4F8243102B010BD2DE9F0471378033B18
:1032100082B01546044688462A2B00F2CD81DFE8AD
:1032200013F05100CB01CB01CB01CB01CB01CB0182
:10323000CB01CB01CB01CB01CB01CB01CB01CB012E
:10324000CB01CB01CB01CB01CB01CB01CB01620088
:103250008700AC0062008700AC00D000E9001801D4
:10326000260137013A013D016301CB01CB01CB01BE
:10327000CB018901CB012B00D64ED0F8001106F10D
:103280000A0A4FF0000909E00B460131B245C4F8C3
:103290000011E75484F8047100F0AC81FF2916F89E
:1032A000017BF1D1D4F8083184F8FF90D4F80C21D7
:1032B00020469847D4F820310133C4F82031012149
:1032C0000023E3E76A68D4F8243100924146C4F849
:1032D00024D120460193FDF76DFB019BC4F82431F6
:1032E00002B0BDE8F087BC4DD0F8001105F1090728
:1032F0004FF0000808E00B460131AF42C4F800115E
:10330000E65484F80461EBD0FF2915F8016FF2D17F
:10331000D4F8083184F8FF80D4F80C21204698476F
:10332000D4F820310133C4F8203101210023E4E72F
:10333000AA4DD0F8001105F109074FF0000808E088
:103340000B460131AF42C4F80011E65484F8046121
:10335000C6D0FF2915F8016FF2D1D4F8083184F8EE
:10336000FF80D4F80C2120469847D4F8203101334F
:10337000C4F8203101210023E4E7994DD0F8001171
:10338000AF1D4FF0000808E00B460131AF42C4F812
:103390000011E65484F80461A2D0FF2915F8016BEE
:1033A000F2D1D4F8083184F8FF80D4F80C212046FB
:1033B0009847D4F820310133C4F82031012100238B
:1033C000E4E7D0F80031FF2B00F07081591C202277
:1033D000C4F80011E25484F80421FF2900F034817C
:1033E0004A1C2623C4F80021635484F8043102B037
:1033F000BDE8F087D0F80031FF2B00F06881591C40
:103400002022C4F80011E25484F80421754D4FF0D5
:103410000008AF1C09E00B460131AF42C4F80011AF
:10342000E65484F804613FF45BAFFF2915F8016BA3
:10343000F1D1D4F8083184F8FF80D4F80C2120466B
:103440009847D4F820310133C4F8203101210023FA
:10345000E3E7D0F80011FF2900F007814A1C202380
:10346000C4F80021635484F80431AA682BE711F0F2
:1034700004087FF435AFD0F80011FF2900F038813F
:103480004A1C2A23C4F80021635484F8043127E736
:10349000D0F80011A1E7D0F80011B7E7524DD0F8ED
:1034A000001105F108074FF0000809E00B46013153
:1034B000AF42C4F80011E65484F804613FF410AF41
:1034C000FF2915F8016FF1D1D4F8083184F8FF8095
:1034D000D4F80C2120469847D4F820310133C4F8A1
:1034E000203101210023E3E7404DD0F8001105F120
:1034F0000A074FF0000809E00B460131AF42C4F85B
:103500000011E65484F804613FF4EAAEFF2915F88F
:10351000016BF1D1D4F8083184F8FF80D4F80C2184
:1035200020469847D4F820310133C4F820310121D6
:103530000023E3E790F80431282B0AD0D0F80011DB
:10354000FF2971D04A1C2023C4F80021635484F859
:1035500004316A68D4F82431254DC4F824D1414699
:10356000204601930092FDF725FA019BD4F8001143
:10357000C4F82431EF1C4FF0000809E00B4601317C
:10358000AF42C4F80011E65484F804613FF4A8AED9
:10359000FF2915F8016BF1D1D4F8083184F8FF80C8
:1035A000D4F80C2120469847D4F820310133C4F8D0
:1035B000203101210023E3E7D0F82431C0F824D1E1
:1035C0002A4601930095FDF7F5F9019BC4F82431D3
:1035D00086E600BFE8BE0108A7BE0108B3BE010829
:1035E000C0BE0108C8BE0108CBBE0108D8BE010894
:1035F000E4BE0108D4F824316A68C4F824D14146F5
:10360000204601930092FDF7D5F9D4F80011019BF3
:10361000C4F82431FF2938D04A1C2923C4F80021DA
:10362000635484F804315BE60026D0F80831D0F802
:103630000C2180F8FF609847D4F8203101333146DF
:10364000C4F8203101227EE70025D4F80831D4F8EF
:103650000C2184F8FF5020469847D4F820310133DC
:103660002946C4F820310122BBE60026D0F80831F3
:10367000D0F80C2180F8FF609847D4F8203101334E
:103680003146C4F820310122E9E60025D4F808319A
:10369000D4F80C2184F8FF5020469847D4F8203104
:1036A00001332946C4F820310122B6E70025194626
:1036B000D0F80C21D0F8083180F8FF509847D4F8A2
:1036C00020315A1CC4F820212B4601217FE6002519
:1036D0001946D0F80C21D0F8083180F8FF509847EF
:1036E000D4F820315A1CC4F820212B46012187E64A
:1036F000D0F80831D0F80C2180F8FF809847D4F832
:10370000203101334146C4F820310122B9E600BF1F
:10371000002A00F09C802DE9F04F1E46D0F81831A9
:1037200089B0054633BB0F4614464FF0010802E04E
:10373000D5F81831F3B9A368CBB9626813781EB90C
:10374000A3F11C01042912D9E168C4F80880292BCF
:10375000D5F81091C5F810110FD02A2B18D0022BD4
:1037600021D039462846FFF74FFDC5F8109124684F
:10377000002CDDD109B0BDE8F08F2368083239464E
:10378000284600F0D7F9C5F8109109B0BDE8F08FD0
:10379000236804323946284600F0F0F8C5F8109145
:1037A00009B0BDE8F08F0026D5F81481C5F8146182
:1037B000526839462846FFF717FD17F0040BC5F885
:1037C000148120D0D5F80011FF2900F0BE804A1CDA
:1037D0002E23C5F800216B5485F8043163689C687A
:1037E0002378452B02D133E0646823781C3B042BFB
:1037F000FAD9224639462846FFF7F6FCC5F810915B
:1038000009B0BDE8F08F594ED5F8001106F1020A53
:1038100009E00B460131B245C5F8001105F80380F7
:1038200085F80481DAD0FF2916F8018BF1D1D5F89B
:10383000083185F8FFB0D5F80C2128469847D5F80F
:1038400020310133C5F8203101210023E3E770471F
:10385000474ED5F8001106F10D0A4FF0000B09E0B4
:103860000B460131B245C5F8001105F8038085F813
:10387000048113D0FF2916F8018BF1D1D5F8083156
:1038800085F8FFB0D5F80C2128469847D5F82031A7
:103890000133C5F8203101210023E3E7A26835494F
:1038A000013201A813F066FD01A804F043FE28B31D
:1038B00001AED5F8001106EB000A4FF0000B09E04D
:1038C0000B460131B245C5F8001105F8038085F8B3
:1038D000048115D0FF2916F8018BF1D1D5F80831F4
:1038E00085F8FFB0D5F80C2128469847D5F8203147
:1038F0000133C5F8203101210023E3E7D5F8001199
:103900001D4E4FF0000B06F1030A0AE00B46013191
:103910005645C5F8001105F8038085F804813FF489
:1039200063AFFF2916F8018BF0D1D5F8083185F87F
:10393000FFB0D5F80C2128469847D5F8203101333F
:10394000C5F8203101210023E2E7D5F80831D5F888
:103950000C2185F8FF6028469847D5F820310133BF
:103960003146C5F82031012232E700BF28BC0108EA
:103970002CBC01083CBC010840BC01082DE9F84FF3
:1039800004460F46904663B11E461A46936893B3A9
:103990001268002AFAD11346394632462046FFF70C
:1039A000B7FED4F80011FF2900F08D804B1C2022B7
:1039B000FF2BC4F80031625484F8042168D05B22E4
:1039C000591CC4F80011E25484F80421D8F80020EE
:1039D0002AB139462046FFF707FCD4F80011FF2929
:1039E00000F082804A1C5D23C4F80021635484F8EF
:1039F0000431BDE8F88F526812782A2A3FD0DFF8E8
:103A00003091D4F800111D4609F1020B0AE00B4673
:103A1000CB4501F10101C4F8001104F803A084F8BA
:103A200004A11AD0FF2919F801ABF0D1D4F808315C
:103A300084F8FF50D4F80C2120469847D4F8203160
:103A40000133C4F8203100230121CB45C4F8001113
:103A500004F803A084F804A1E4D1002332463946D7
:103A60002046FFF755FED4F80031FF2B4DD0591CEE
:103A70002922C4F80011E25484F8042193E7324665
:103A800039462046FFF744FED4F80031FF2B96D18B
:103A90000022194684F8FF20D4F80831D4F80C210C
:103AA000204698475B23237084F80431D4F82031F2
:103AB000D8F8002001330121C4F82031C4F80011E6
:103AC000002A86D18EE70025D4F8083184F8FF500B
:103AD000D4F80C2120469847D4F820310133C4F89B
:103AE00020312946012362E70025D4F80831D4F8B3
:103AF0000C2184F8FF5020469847D4F82031013338
:103B00002946C4F8203101226DE700251946D4F872
:103B10000C21D4F8083184F8FF5020469847D4F897
:103B200020315A1CC4F820212B460121A0E700BFF8
:103B300024BE01082DE9F043044683B00E46174623
:103B40001D4653B39B6843BB2A464FF0010E06E067
:103B500010F4606F5CD11268FAB19368EBB95368E6
:103B60006D491B78193BDBB20EFA03F0122B01EA08
:103B70000001F0D80029EBD094F80431202B4DD06F
:103B8000D4F80031FF2B00F0B480591C2022C4F877
:103B90000011E25484F8042142E00023D4F8148197
:103BA000C4F8143131462A462046FFF7B1FDD4F857
:103BB0000011FF2956D04B1C2822C4F80031625452
:103BC00084F80421386878B1D4F824310090024692
:103BD000C4F824D1314620460193FCF7EBFE019A4C
:103BE000D4F80031C4F82421FF2B4DD05A1C2920D1
:103BF000C4F800213146E0542A4684F80401012328
:103C00002046FFF785FDC4F8148103B0BDE8F083BA
:103C100094F8043103F0FD02282AAFD1D4F8001142
:103C2000FF2954D04A1C2823C4F8002163544FF0C4
:103C3000000984F80431D4F81481C4F814914B4677
:103C40002A4631462046FFF763FDD4F80031FF2BAA
:103C50002CD0591C2922FF29C4F80011E25484F801
:103C60000421A8D14FF00009D4F8083184F8FF905E
:103C7000D4F80C2120469847D4F820310133C4F8F9
:103C800020314946012397E700271946D4F80C2133
:103C9000D4F8083184F8FF7020469847D4F82031D2
:103CA0005A1CC4F820213B460122A0E71946D4F84B
:103CB0000C21D4F8083184F8FF9020469847D4F8B6
:103CC00020315A1CC4F820214B460121C2E74FF095
:103CD0000008D4F80831D4F80C2184F8FF8020467D
:103CE0009847D4F8203101334146C4F820310122ED
:103CF00099E74FF000081946D4F80C21D4F80831A0
:103D000084F8FF8020469847D4F820315A1CC4F824
:103D100020214346012139E7073104002DE9F04114
:103D20000E46D0F8401184B00446154639B104ABB4
:103D3000D0F8102143F8102D0191C0F810312B68F4
:103D40001A78042A17D002A81A46D4F82451C4F8C5
:103D500024013146204602930395FCF72BFED4F84C
:103D60004031039AC4F8242113B1009BC4F81031E8
:103D700004B0BDE8F08102AF5A68D4F82431C4F829
:103D800024713146204602920393FCF713FED4F8C7
:103D90004031039AC4F8242113B1009BC4F81031B8
:103DA00094F804313C2B2CD0D4F80011FF2951D0C9
:103DB0004A1C3C23C4F80021635484F804312B6866
:103DC000D4F824519B68C4F824711A463146204621
:103DD00002930395FCF7EEFD94F80431039AC4F8BE
:103DE00024213E2B19D0D4F80011FF2921D04A1CE0
:103DF0003E23C4F80021635484F8043104B0BDE8C4
:103E0000F081D4F80031FF2B48D0591C2022C4F88F
:103E10000011E25484F80421C8E7D4F80031FF2BE4
:103E20002AD0591C2022C4F80011E25484F804213D
:103E3000DBE70025D4F80831D4F80C2184F8FF50D2
:103E400020469847D4F8203101332946C4F8203160
:103E50000122CDE74FF00008D4F80831D4F80C2146
:103E600084F8FF8020469847D4F82031013341463A
:103E7000C4F8203101229CE700251946D4F80C2112
:103E8000D4F8083184F8FF5020469847D4F8203100
:103E90005A1CC4F820212B460121C3E74FF000082B
:103EA0001946D4F80C21D4F8083184F8FF80204654
:103EB0009847D4F820315A1CC4F8202143460121E8
:103EC000A4E700BF2DE9F0411578312D82B01346EB
:103ED00004460DD0D0F82451C0F824D18DE8280034
:103EE000FCF768FD019BC4F8243102B0BDE8F08105
:103EF00053689F685D68002FF7D0D0F800112F44F9
:103F00004FF0000808E00B460131BD42C4F8001133
:103F1000E65484F80461E8D0FF2915F8016BF2D16A
:103F2000D4F8083184F8FF80D4F80C212046984753
:103F3000D4F820310133C4F8203101210023E4E713
:103F4000F0B51378012B83B015460E46044629D9E7
:103F5000302B27D0062B25D0D0F80011FF2931D0E7
:103F60004A1C2823C4F8002163542A46314684F8A9
:103F700004312046D4F82431C4F824D101930095AB
:103F8000FCF718FDD4F80011019BC4F82431FF2977
:103F900028D04A1C2923C4F80021635484F8043132
:103FA00003B0F0BDD4F82431C4F824D131462A46F8
:103FB000204601930095FCF7FDFC019BC4F82431D9
:103FC00003B0F0BD0027D4F80831D4F80C2184F8F0
:103FD000FF709847D4F8203101333946C4F82031B6
:103FE0000122BEE70025D4F80831D4F80C2184F86A
:103FF000FF5020469847D4F8203101332946C4F8B1
:1040000020310122C6E700BFC1680B78493B012B74
:1040100000F2AC802DE9F04F4A1CC2604B78D0F81A
:104020002C80452B85B0044600F0668104AE00214B
:1040300046F8041D493B0F2B54D8DFE803F04E4EE1
:104040005332535353535353535353535308531CE3
:104050000125E360676B656353784C2B00F0888023
:10406000542B00F08B80732B44D0662B60D0A3F1CF
:104070003001092900F2B181204603F01FF90546FD
:10408000002800F02982E3681A78492A00F0288184
:10409000024667631978452929D0002005B0BDE89C
:1040A000F08F204603F076FF0246002AF5D0002369
:1040B0002F212046FCF7ACF830600028EDD0E268F4
:1040C0001378452B00F10806B4D10398C4F82C806E
:1040D0000132E26005B0BDE8F08F2046FFF794FFA3
:1040E0000246E2E7204602F06BFC0246DDE70133C0
:1040F000E360DAE79378722B00F04981702B00F0CF
:10410000AA81204603F01AF80546002800F0E48151
:1041100090F80090B9F1310F36D0B9F1320F00F0BC
:10412000CF80B9F1330F00F07281E3680022B0E76D
:104130009378702BE5D1D31CE360D378542B40F0F7
:104140003C810432E26000206369A1698B42ECDAB1
:1041500021695A1C03EB4303626111EB83026DD0AA
:10416000062501F823505060E36892E7002070476D
:10417000204603F00FFFE36802468AE72046FCF77B
:10418000EBF9E368024684E7D0F804B0226BDBF871
:104190000830DBF800A0CB49023B1A4422635046AA
:1041A00004F0BEF9002800F08881DBF80C30032B06
:1041B000BBD8DFE803F07CAB47044FF0000AC249EC
:1041C000504604F0ADF9002800F09D819AF80030C7
:1041D0006E2BAAD19AF80130772B01D0612BA4D194
:1041E0005F21204600F082FD8146204602F0E8FB78
:1041F000E36819784529824600F05D82702900F055
:104200004283692940F04D825A786C2A40F04982F5
:10421000204602F003FA034652463A212046FBF7B5
:10422000F7FF4A46034639212046FBF7F1FF2A46AD
:10423000034638212046FBF7EBFF0246E36828E7F8
:104240004FF0000A6B681B685A78632A00F04D81B2
:10425000204602F0E3F981469C49504604F060F99B
:10426000002800F03C819A49504604F059F930B1D9
:104270005046984904F054F9002840F01482204632
:1042800003F01CF8E3681B78492B824600F0D282C9
:1042900053464A4637212046FBF7BAFF2A460346D3
:1042A00036212046FBF7B4FFE3680246F1E62A46D2
:1042B000002334212046FBF7ABFFE3680246E8E623
:1042C0006B68032B3FF631AF01A252F823F000BF19
:1042D000AF420008CB43000841420008BB41000840
:1042E0002046FFF791FE2A46034604212046FBF7AD
:1042F0008FFFE3680246CCE602310023C1601A4614
:104300002F2105B0BDE8F04FFBF782BFBAF1000FD7
:104310005BD09AF80030702B01D06D2B55D19AF8F4
:1043200001209A4251D1E26813785F2B00F0348368
:104330004FF0010A4C2B00F0BF82542B00F0AF82EB
:10434000732B00F0ED80662B00F08B81A3F1300120
:10435000092900F20084204602F0B0FF814618B11E
:10436000E3681B78492B64D0BAF1000F00F0A380FA
:104370004B464A4637212046FBF74AFF03462A466A
:1043800035212046FBF744FFE368024681E603320D
:10439000E260204602F014FB8146204602F08EFFC8
:1043A000E3681B78492B824638D003464A462946A3
:1043B0002046FBF72DFF024640E72046FCF7B4F805
:1043C00001307FF4C1AE024638E7B9F1330FE2683D
:1043D0001ED013784FF0000AACE76F2B34D0692B56
:1043E00040F0218493786C2B7FF48BAE0025E3683A
:1043F0000233E3604521204600F078FC2A4603465C
:1044000030212046FBF704FFE368024641E6E268FC
:1044100013785F2B48D04FF0000A8BE72046FFF758
:10442000F3FD5246034604212046FBF7F1FE034606
:10443000BCE72046FFF7E8FD4A4603460421204634
:10444000FBF7E6FE81468FE793786E2B7FF459AE3B
:104450000332E26010E6D31CE360D3784C2B00F00B
:104460005982542B00F07382732B00F02881662B45
:1044700000F0C181A3F13001092900F2E183204657
:1044800002F01CFF0546002800F04282E3681B781A
:10449000492B00F084820246002349212046FBF785
:1044A000B7FEE3680246F4E50132E26045212046AA
:1044B00000F01CFC81464B4661E7204602F080FA82
:1044C00003465CE7E8C00108E0BD0108D8BD01086B
:1044D000F4BE0108F8BE01082A46E368D9E5452183
:1044E000204600F003FC8246D2E61B78A3F163026B
:1044F000012A03D9723B012B3FF6AAAE204602F0F7
:104500005FFA8146A8E6204602F088F881462046F8
:1045100002F084F88246204602F080F803467BE6EB
:104520005378722B00F06582702B00F0A282204637
:1045300002F004FE814600283FF416AF0378312BC9
:1045400000F0BF81322B40F08081D9F80430032B7A
:1045500000F2AE80DFE813F0040081014E000C0091
:104560004A46002334212046FBF752FE8146FBE6F3
:104570004FF0000BCC49584603F0D2FF002800F062
:10458000A2829BF800306E2B40F092809BF80130A5
:10459000772B02D0612B40F08B805F21204600F00A
:1045A000A5FB0190204602F00BFAE3681A78452A31
:1045B000834600F01683702A00F00883692A77D1B9
:1045C0005B786C2B74D1204602F028F803465A46DB
:1045D0003A212046FBF71CFE019A0346392120466A
:1045E000FBF716FE4A46034638212046FBF710FE2D
:1045F0008146B9E64FF0000BD9F804301B685A78B1
:10460000632A00F09582204602F008F80190A7493D
:10461000584603F085FF002800F04382A44958461D
:1046200003F07EFF30B15846A24903F079FF00281D
:1046300040F08C82204602F041FEE3681B78492B53
:10464000834600F03C835B46019A37212046FBF706
:10465000DFFD4A46034636212046FBF7D9FD814659
:1046600082E65378702B7FF462AF931CE3609378FB
:10467000542B40F0B6810332E26000206369A269E6
:10468000934215DA2269591C03EB430312EB8309A9
:1046900061613FF469AE062102F82310C9F80400F5
:1046A00062E60022F5E4204601F0B8FF8246EFE51D
:1046B0004FF0000958E60133E3600023ACE51379BD
:1046C000722B00F0AC81702B00F02282204602F0A9
:1046D00035FD8146002800F01B810378312B00F066
:1046E0003A81322B40F01A81D9F80430032B00F2C2
:1046F0000F81DFE813F004001A014B000B004A465B
:10470000002334212046FBF783FDC4E600256649DB
:10471000284603F005FF002800F0C9812B786E2B96
:1047200040F0F6806B78772B02D0612B40F0F08060
:104730005F21204600F0DAFA0546204602F040F9F3
:10474000E3681A78452A824600F0B582702A00F0A4
:10475000A782692A40F0DC805B786C2B40F0D8801F
:10476000204601F05BFF034652463A212046FBF704
:104770004FFD2A46034639212046FBF749FD4A46AC
:10478000034638212046FBF743FD84E60025D9F88F
:1047900004301B685A78632A00F0A781204601F094
:1047A0003DFF82464149284603F0BAFE002800F04A
:1047B00096813F49284603F0B3FE30B128463D4973
:1047C00003F0AEFE002840F02982204602F076FD7C
:1047D000E3681B78492B054600F00A822B465246B7
:1047E00037212046FBF714FD4A4603463621204672
:1047F000FBF70EFD4FE61379702B7FF467AF531D67
:10480000E3605379542B7DD10632E2600025636961
:10481000A26993427CDA21695A1C03EB430362616B
:1048200011EB830200F03682062001F823001046C7
:10483000556030E62046FFF7E7FB52460346042169
:104840002046FBF7E5FC824622E5332B7FF430AFB0
:10485000E3681A785F2A00F0A1814FF0000B204630
:1048600001F0DCFE0346BBF1000F05D00246372104
:104870002046FBF7CDFC03464A4635212046FBF790
:10488000C7FC814670E55A78692A7FF40AAF023383
:10489000E3604521204600F029FA0346BCE42046A7
:1048A000FBF75AFE81465FE5E0BD0108D8BD01086F
:1048B000F4BE0108F8BE0108204603F06BFB8146F8
:1048C00052E54368206B9A68D3F800B0CE49019353
:1048D000023A02442263584603F022FE019B00285C
:1048E00000F01181DB68032B3FF6E2AE01A252F823
:1048F00023F000BF61450008B3490008F9450008EE
:10490000754500082046FBF70FFE451C7FF47FAF7E
:104910000020C0E5204603F03DFBBCE5332BF7D17A
:10492000E3681A785F2A00F071810025204601F0C3
:1049300075FE03462DB1024637212046FBF768FC81
:1049400003464A4635212046FBF762FCA3E5204694
:10495000FBF702FE9FE5D0F804A0226BDAF80830DE
:10496000DAF80050A849023B13442363284603F0B9
:10497000D7FD002800F0D880DAF80C30032BC7D818
:1049800001A252F823F000BFFF4600084B4A00087E
:104990008F4700080F4700080132E26019E5204602
:1049A000FFF732FB2A46034604212046FBF730FC82
:1049B00071E5BBF1000F3FF450AF9BF80030702B56
:1049C00002D06D2B7FF449AF9BF801209A427FF40F
:1049D00044AFE3681A785F2A00F007814FF0010BBB
:1049E0003DE72046FBF7A0FD01307FF447AE81464E
:1049F000BAE40232E260204601F0E2FF814620463E
:104A000002F05CFCE3681B78492B83463ED00346EA
:104A10004A4601212046FBF7FBFB8146A4E4053210
:104A2000E260204601F0CCFF0546204602F046FC3D
:104A3000E3681B78492B814600F0B88003462A467C
:104A400001212046FBF7E4FB25E5002D3FF46DAF87
:104A50002B78702B02D06D2B7FF467AF6A789A4267
:104A60007FF463AFE3681A785F2A00F016810125AE
:104A70005CE70232E260204601F0D0FD00230246EE
:104A800049212046FBF7C4FB81466DE42046FFF731
:104A9000BBFA5A46034604212046FBF7B9FB0346FE
:104AA000B6E74521204600F021F98346CBE52046B4
:104AB00001F0B4FD0546204601F0B0FD82462046D7
:104AC00001F0ACFD4FE6204601F0A8FD0190204624
:104AD00001F0A4FD8346204601F0A0FD76E54521C6
:104AE000204600F003F9054678E61B78A3F163023F
:104AF000012A03D9723B012B3FF650AE204601F04C
:104B00005FFF82464EE6204601F05AFF0346B3E6B9
:104B10000532E260204601F081FD00230246492172
:104B20002046FBF775FBB6E4204601F049FF07E796
:104B30001B78A3F16302012A03D9723B012B3FF6D4
:104B400062AD204601F03CFF019060E5204601F097
:104B500065FD834677E56F2B18D0692B40F0BA804E
:104B600053786C2B7FF4E3AC4FF00009E368023319
:104B7000E3604521204600F0B9F84A46034630215B
:104B80002046FBF745FB8146FFF7EEBB53786E2BC3
:104B90007FF4CDAC0232E260FFF7DDBB0133E360AE
:104BA0004521204600F0A2F8034665E62046FFF7BF
:104BB0002BFA4A46034604212046FBF729FB2A46E6
:104BC000034601212046FBF723FB64E45A78692A57
:104BD0007FF46EAD0233E3604521204600F086F895
:104BE000F4E40133E3600020F0E40133E36034E6F1
:104BF0002046FFF709FA2A46034604212046FBF720
:104C000007FB0546EAE500BFE8C001080133E360A1
:104C10004521204600F06AF8034692E6204601F05E
:104C2000FDFC0546DAE5742B7FF46BAA93786C2BB8
:104C30007FF467AA204601F0C3FE0546FFF7D7BB05
:104C40006F2B14D0692B19D113796C2B7FF43EADE7
:104C50000025E3680233E3604521204600F046F872
:104C60002A46034630212046FBF7D2FA13E4137993
:104C70006E2B7FF42BAD0532E26000E4742B7FF4E1
:104C800025AD13796C2B7FF421AD204601F098FE01
:104C90000546DEE71046FFF7FEBB0133E36044E65E
:104CA0005A78692A7FF434AE0233E3604521204606
:104CB00000F01CF857E50133E360002053E520467F
:104CC000FFF7A2F95A46034604212046FBF7A0FA53
:104CD0008346B8E4742B7FF42AAC53786C2B7FF4B2
:104CE00026AC204601F06CFE81463FE72DE9F04FEF
:104CF000C268157885B000238D420446039300F006
:104D000061820F4603AE22E0662B4BD0A3F1300147
:104D1000092901F24E84204602F0D0FA804600288C
:104D200064D0E3681B78492B00F08B8002466563F2
:104D300000232E212046FBF76BFA3060002856D066
:104D4000E2681378BB4200F1080600F079814FF069
:104D50000108656BC4F8348013784C2B4BD0542B6E
:104D600051D0732BD0D15378722B00F05281702B1D
:104D700000F06C81204602F0E1F98046002835D031
:104D800090F800A0BAF1310F42D0BAF1320F29D118
:104D9000D8F80430032B29D8DFE813F062000801AB
:104DA000AC006A005378702BE4D1931CE3609378D5
:104DB000542B51D02046FBF7B7FB013016D0636966
:104DC000A269934212DA2269591C03EB4303616121
:104DD00012EB83010AD04FF0060E02F823E00A46D8
:104DE0004860A4E7BAF1330F00F0588165630020F2
:104DF00005B0BDE8F08F204603F0CCF802466563AD
:104E0000002A95D1F3E72046FBF7A6FB0246F6E71A
:104E1000D0F804B0226BDBF80830DBF80090B04922
:104E2000023B1A442263484603F07AFB002800F054
:104E30005281DBF80C30032BD8D8DFE803F011AD3A
:104E40005D1B2046FFF7E0F842460346042120465A
:104E5000FBF7DEF90246D2E70332E2600020AEE75C
:104E60004246002334212046FBF7D2F90246C6E72A
:104E70004FF000099B49484603F052FB8346002847
:104E800000F0388199F800306E2BAFD199F80130DD
:104E9000772B01D0612BA9D15F212046FFF726FF98
:104EA0008246204601F08CFDE3681A78452A814647
:104EB00000F0CF81702A00F0C984692A96D15B780E
:104EC0006C2B93D1204601F0A9FB83465B464A46F2
:104ED0003A212046FBF79CF95246034639212046E9
:104EE000FBF796F94246034638212046FBF790F936
:104EF000024684E74FF00009D8F804301B685A785E
:104F0000632A00F04681E1680B784C2B00F019868B
:104F1000542B00F0FD81732B00F03784662B00F0DA
:104F20007584A3F13002092A00F2BF81204602F005
:104F3000C5F98246002800F0A884E3681B78492B55
:104F400000F008876849484603F0EAFA002800F0B4
:104F50001A816649484603F0E3FA30B1484664498D
:104F600003F0DEFA002840F06F81204602F0A6F937
:104F7000E3681B78492B814600F03C844B4652463F
:104F800037212046FBF744F94246034636212046A6
:104F9000FBF73EF9024632E7B9F1000F06D099F867
:104FA0000030702B00F081806D2B7ED0BAF1330F72
:104FB000E16874D00B784FF0000A4C2B00F053845A
:104FC000542B00F06684732B00F00581662B00F0F3
:104FD0001C81A3F13002092A01F2AC82204602F0C2
:104FE0006DF9814620B1E3681B78492B00F085817B
:104FF000BAF1000F6DD04B464A4637212046FBF7E9
:1050000007F90346424635212046FBF701F90246DF
:10501000F5E60232E260204601F0D2FC81462046ED
:1050200002F04CF9E3681B78492B824600F0BF8000
:1050300003464A4641462046FBF7EAF80246DEE6CA
:1050400003980132E26005B0BDE8F08F911CE16089
:1050500093784C2B00F04C81542B00F07885732B07
:1050600000F0E782662B00F0A583A3F13000092849
:1050700001F20682204602F021F98046002800F065
:10508000FD83E3681B78492B00F03386024600233A
:1050900049212046FBF7BCF80246B0E6E1680B78F0
:1050A0005F2B0FD04FF0000A87E799F801209A4252
:1050B0007FF47CAFE1680B785F2B00F0B2854FF096
:1050C000010A7AE70131E16020464521FFF70EFE33
:1050D00081464B4696E7204601F072FC034691E775
:1050E000E8C00108E0BD0108D8BD0108F4BE010810
:1050F000F8BE0108204601F091FA8246E068037884
:105100004C2B00F01186542B00F03086732B00F0EE
:10511000A184662B00F0AC80A3F13001092901F2D3
:105120009481204602F0CAF8E2688146137810B1F3
:10513000492B00F0EF864C2B00F0E785542B00F054
:105140000386732B00F0CC83662B00F09384A3F1CD
:105150003001092901F22981204602F0AFF8834687
:1051600000283FF4B3AEE3681B78492B7FF4AEAE62
:105170002046FEF749FF5A46034604212046FBF726
:1051800047F88346A2E645212046FFF7AFFD81465A
:10519000F4E61B78A3F16302012A03D9723B012BC9
:1051A0003FF6B1AE204601F00BFC8246CAE620462F
:1051B000FEF72AFF5246034604212046FBF728F853
:1051C000034636E70132C2602E211A4605B0BDE81B
:1051D000F04FFBF71DB84B78722B00F04085702B19
:1051E00000F00E86204601F0A9FF814600283FF41A
:1051F000FFAE0378312B00F05283322B2ED0332BAD
:1052000000F046864FF00009F2E64B78702BE9D1AA
:105210008B1CE3608B78542B40F07D850331E1607B
:1052200000206369A2699342ECDA2269591C03EBFE
:10523000430312EB830961613FF4DAAE062102F801
:105240002310C9F80400D3E6204601F0E7F98146AF
:1052500094E60133E3604FF0000B37E6D9F80430F1
:10526000032BCFD8DFE813F05900C604A500610076
:105270004378702B00F0D285204601F05FFF814615
:10528000002800F057810378312B00F09985322BEC
:1052900040F0CB84D9F80430032B00F28384DFE89C
:1052A00013F04201CB048C014C016F2B00F04184C0
:1052B000692B41F071814B786C2B01F0B580204651
:1052C00001F03CFF8246002800F0DF820378312B9A
:1052D00000F06E84322B40F00D84DAF80430032B9A
:1052E00000F2D382DFE813F09C000E04E800A40073
:1052F000204602F04FFE0246C9E62046FEF784FE35
:105300004A46034604212046FAF782FF81466FE6AB
:105310002046FBF721F9824614E64A460023342151
:105320002046FAF775FF814662E64FF0000BD1493F
:10533000584603F0F5F8002800F01B869BF8003073
:105340006E2B7FF45FAF9BF80130772B02D0612B7F
:105350007FF458AF5F212046FFF7C8FC009020463D
:1053600001F02EFBE3681A78452A834600F0408757
:10537000702A00F09487692A7FF444AF5B786C2B25
:105380007FF440AF204601F049F903465A463A21DE
:105390002046FAF73DFF009A034639212046FAF7E6
:1053A00037FF4A46034638212046FAF731FF814647
:1053B0001EE64FF0000BD9F804301B685A78632AB8
:1053C00000F0C885204601F029F90090AA49584606
:1053D00003F0A6F8002800F02B86A849584603F0F1
:1053E0009FF830B15846A64903F09AF8002840F0DB
:1053F000D886204601F062FFE3681B78492B83467C
:1054000000F0D5865B46009A37212046FAF700FF68
:105410004A46034636212046FAF7FAFE8146E7E57A
:105420005246002334212046FAF7F2FE824689E5EF
:105430004FF0000B8F49584603F072F8002800F037
:10544000C2869BF800306E2B40F01F829BF8013023
:10545000772B02D0612B40F018825F212046FFF7A6
:1054600045FC0090204601F0ABFAE3681A78452A23
:10547000834600F0CE86702A00F0BF86692A40F08D
:1054800004825B786C2B40F00082204601F0C6F865
:1054900003465A463A212046FAF7BAFE009A0346D6
:1054A00039212046FAF7B4FE5246034638212046F9
:1054B000FAF7AEFE824645E54FF0000BDAF804300D
:1054C0001B685A78632A00F03086204601F0A6F85F
:1054D00000906949584603F023F8002800F03F8601
:1054E0006649584603F01CF830B15846644903F049
:1054F00017F8002840F09286204601F0DFFEE368AE
:105500001B78492B834600F0D6865B46009A3721EC
:105510002046FAF77DFE5246034636212046FAF72A
:1055200077FE82460EE54A46002334212046FAF7EC
:105530006FFE8146E2681378FDE54FF0000B4D49A0
:10554000584602F0EDFF002800F0E3869BF800309B
:105550006E2B40F027839BF80130772B02D0612B14
:1055600040F020835F212046FFF7C0FB00902046DB
:1055700001F026FAE2681378452B834600F0D686C0
:10558000702B00F0BC87692B41F0448053786C2B62
:1055900041F03D80204601F041F803465A463A2149
:1055A0002046FAF735FE009A034639212046FAF7DD
:1055B0002FFE4A4603463821B8E74FF0000BD9F8D2
:1055C00004301B685A78632A00F05A86204601F09E
:1055D00025F800902849584602F0A2FF002800F064
:1055E00048862649584602F09BFF30B15846244968
:1055F00002F096FF002840F01786204601F05EFE7C
:10560000E3681B78492B834609D12046FEF7FCFC52
:105610005A46034604212046FAF7FAFD83465B46C4
:10562000009A37212046FAF7F3FD4A460346362111
:105630007CE7D378722B00F05084702B00F0A684A6
:10564000204601F07BFD8046002800F0178103789A
:10565000312B00F08682322B40F02D82D8F80430B6
:10566000032B00F20B81DFE813F00D002E0259002E
:10567000150000BFE0BD0108D8BD0108F4BE010857
:10568000F8BE01084246002334212046FAF7C0FD47
:105690000246FCE44FF00009C849484602F040FFCA
:1056A000002800F0718599F800306E2B40F0E680FC
:1056B00099F80130772B02D0612B40F0DF805F2119
:1056C0002046FFF713FB8146204601F079F9E36895
:1056D0001A78452A824600F0C785702A00F0B885FE
:1056E000692A40F0CB805B786C2B40F0C780204665
:1056F00000F094FF034652463A212046FAF788FD0F
:105700004A46034639212046FAF782FD42460346BF
:1057100038212046FAF77CFD0246B8E44FF0000934
:10572000D8F804301B685A78632A00F0D9842046E0
:1057300000F074FF8246A249484602F0F1FE0028BC
:1057400000F0C5849F49484602F0EAFE30B1484661
:105750009D4902F0E5FE002840F07485204601F0E6
:10576000ADFDE3681B78492B814600F0C6854B46AA
:10577000524637212046FAF74BFD42460346362172
:105780002046FAF745FD024681E44B78722B00F083
:10579000C983702B7FF493AD0231E160204600F0A5
:1057A0003DFF0023024649212046FAF731FD82469B
:1057B000FFF7C8BBD378702B7FF442AF131DE360B3
:1057C0001379542B55D10532E26000206369A26938
:1057D000934253DA2269591C03EB4303616112EBD4
:1057E000830100F010864FF0060E02F823E00A460F
:1057F00048604CE42046FEF707FC4A460346042175
:105800002046FAF705FD8146FFF7B8BB4B78702BB1
:105810007FF455AD8B1CE3608B78542B30D1033172
:10582000E16000206369A26993422EDA2269591C63
:1058300003EB430312EB830A61613FF483AB062160
:1058400002F82310CAF80400FFF77CBB5A78692AD3
:105850007FF4CCAA0233E36045212046FFF746FAE5
:105860008346FFF733BB204602F094FB8146FFF7E7
:10587000BFBB2046FAF758FE0130A7D1002206E44C
:105880002046FAF751FE0130CCD14FF0000AFFF765
:1058900059BB2046FAF760FE8146FFF7A9BB436873
:1058A000206B9A68D3F800B048490093023A02444A
:1058B0002263584602F034FE009B002800F0258346
:1058C000DB68032B3FF69EAC01A252F823F000BF29
:1058D0001B530008CB5C0008B75300082F53000887
:1058E0005378722B00F08483702B00F03F842046A5
:1058F00001F024FC834600283FF4E8AA0378312B0A
:1059000000F03C82322B40F0C281DBF80430032BE4
:1059100000F22381DFE813F00400C3015C000D00F6
:105920005A46002334212046FAF772FC8346FFF7DB
:10593000CDBA002300932149009802F0F1FD002820
:1059400000F00A8500990A786E2A40F006814B78AB
:10595000772B02D0612B40F000815F212046FFF7BA
:10596000C5F90090204601F02BF8E36801901A7801
:10597000452A00F0E084702A00F0C885692A40F0CA
:10598000EC805B786C2B40F0E880204600F046FE0F
:105990000346019A3A212046FAF73AFC009A034658
:1059A00039212046FAF734FC5A460346382120466E
:1059B000FAF72EFC8346FFF789BA00BFE0BD010865
:1059C000D8BD0108F4BE0108F8BE0108E8C001080E
:1059D00000230093DBF8042012685178632900F05B
:1059E000CF84204600F01AFE0190D349009802F0BF
:1059F00097FD002800F0BD84D049009802F090FD8A
:105A000030B10098CE4902F08BFD002840F0C784E9
:105A1000204601F053FCE3681B78492B02460AD16B
:105A200000902046FEF7F0FA009A03460421204633
:105A3000FAF7EEFB024613463721019A2046FAF7A1
:105A4000E7FB5A46034636212046FAF7E1FB834638
:105A5000FFF73CBA4378722B00F0A682702B7FF4DC
:105A60000BAC821CE260204600F0D8FD5B4602468B
:105A700049215BE55378702B7FF439AF931CE360C9
:105A80009378542B40F0CB820332E26000206369AC
:105A9000A269934261DA2269591C03EB430312EBBA
:105AA000830B61613FF412AA062102F82310CBF8A0
:105AB0000400FFF70BBA332B7FF4E0AEE3681A78EB
:105AC0005F2A00F0B7834FF00009204600F0A6FDE2
:105AD0000346B9F1000F05D0024637212046FAF7F8
