:020000040800F2
:1000000038240020E1010008E9010008EB010008A4
:10001000ED010008EF010008F101000800000000F8
:10002000000000000000000000000000F3010008D4
:10003000F501000800000000F7010008652900082C
:10004000FB010008FB010008FB010008FB010008A0
:10005000FB010008FB010008790300089D0300086C
:10006000FB010008FB010008FB010008FB01000880
:10007000FB010008FB010008FB010008FB01000870
:10008000FB010008FB010008FB010008FB01000860
:10009000FB010008FB010008FB010008FB01000850
:1000A000FB010008FB010008FB010008FB01000840
:1000B000FB010008FB010008FB010008FB01000830
:1000C000FB010008FB010008FB010008FB01000820
:1000D000FB010008FB010008FB010008FB01000810
:1000E0007F030008FB010008FB010008FB0100087A
:1000F000FB010008FB010008FB010008FB010008F0
:10010000FB010008FB010008FB010008FB010008DF
:10011000FB010008FB010008FB010008FB010008CF
:10012000FB010008FB01000861030008FB01000857
:10013000FB010008FB010008FB010008FB010008AF
:10014000FB010008FB010008FB010008FB0100089F
:10015000FB010008FB0100086D030008FB0100081B
:10016000FB010008FB010008FB010008FB0100087F
:10017000FB010008FB010008FB0100080000000073
:10018000FB010008FB010008FB010008FB0100085F
:10019000FB010008FB010008FB010008FB0100084F
:1001A000FB010008FB010008FB010008FB0100083F
:1001B000FB010008FB010008FB010008FB0100082F
:1001C000FB010008FB010008DFF810D000F098F8F0
:1001D00000F044F8004800473D3F00083824002064
:1001E0000648804706480047FEE7FEE7FEE7FEE7D1
:1001F000FEE7FEE7FEE7FEE7FEE7FEE775290008FB
:10020000C901000840EA01039B0703D009E008C9BF
:10021000121F08C0042AFAD203E011F8013B00F8CB
:10022000013B521EF9D27047D2B201E000F8012B17
:10023000491EFBD270470022F6E710B513460A4666
:1002400004461946FFF7F0FF204610BD421C10F887
:10025000011B0029FBD1801A7047000070B5054CC6
:10026000054D03E0206820448047241DAC42F9D1AD
:1002700070BD0000D8510008DC51000800F00AB839
:10028000034870470248001D011F8860001D704729
:100290003400002010B500F00EF8016919B10022F9
:1002A0000261884701E080688047AFF3008000006A
:1002B00010B5AFF3008070B5FFF7E4FF04680546A2
:1002C000A4B9202003F0C4FD040011D00949002086
:1002D0002C60C4E900010849A160207320616061BD
:1002E0000649A06109B100F01DF8E061204670BD2B
:1002F000AFF3008000000000B10200080000000021
:10030000064C074D06E0E06840F0010394E8070062
:1003100098471034AC42F6D3FFF75AFFB8510008A3
:10032000D851000810B5882003F092FD002801D0B4
:100330000021017010BD802902D808B1017809B1EF
:1003400000207047012100F8081B704718B100F128
:100350000802914201D000207047002101707047CF
:10036000014800F041B9000028010020014800F0D8
:100370003BB9000080010020012000F07BBA4FF45F
:10038000006010B500F076FA4FF4805000F072FA79
:10039000BDE810404FF4004000F06CBA022000F0BD
:1003A00069BA0000F8B50025009590F83C20012AB4
:1003B00018D0012280F83C200A6807234E4C0668BA
:1003C000092A1AD90A3A02EB4207F268BB409A435B
:1003D000F2600E680268A64206D10B7AD66846EA39
:1003E000036308E00220F8BD0A3E8B68D76806EB7D
:1003F0004606B3403B43D3600EE002EB420732694E
:10040000BB409A43326103680E788A681F6906EB25
:100410004606B2403A431A614A681F23072A13D29C
:100420000668521E02EB8207726BBB409A437263EE
:1004300003680E790A88761E5F6B92B206EB860619
:10044000B2403A435A6327E006680D2A12D2D21FFF
:1004500002EB8207326BBB409A43326302680E792B
:100460000B88F61F176B9BB206EB8606B3403B4327
:10047000136311E00D3A02EB8207F26ABB409A4324
:10048000F26202680E790B880D3ED76A9BB206EBCA
:100490008606B3403B43D362184A0368934208D1AF
:1004A0000B68122B05D1D2F8043343F48003C2F851
:1004B0000433036893421AD10B68A34201D0112B75
:1004C00015D1D2F8043343F40003C2F804330968A9
:1004D000A1420CD10A490B4A0968B1FBF2F101EBC8
:1004E0008101490000E0491E00910029FBD180F8FC
:1004F0003C500020F8BD0000120000100020014018
:100500000400002040420F0070B504004FF00005C9
:1005100003D0206C002610B107E0012070BD666496
:10052000204684F83C6000F019F8206CC00610D416
:10053000206C20F4885040F002002064204602F035
:10054000E3FE6664206C20F0020040F001002064AD
:1005500000E0012584F83C60284670BD30B51C4D94
:100560000022046803231B4987B01B48AC4209D111
:100570000C6844F480740C60096801F48071059182
:1005800018210BE0154DAC4210D10C6844F40074F6
:100590000C60096801F40071059120210292CDE9F7
:1005A0000013694600F072F907B030BD0C48844270
:1005B000FAD1086840F480600860086869460292D1
:1005C00000F4806005900120CDE900030548E9E7CB
:1005D0000020014044380240000002400021014058
:1005E00000220140000802402DE9F041044690F845
:1005F000541008200427256D002600FA01F12A680E
:100600000A4217D021680A68520713D50A6822F0F7
:1006100004020A6094F854108840A860E06C40F02E
:100620000100E06484F8357084F83460A16C09B18D
:100630002046884794F854205048296800FA02F26E
:10064000114217D021684A69120613D54A6922F06F
:1006500080024A6194F854108840A860E06C40F031
:100660000200E06484F8357084F83460A16C09B14C
:1006700020468847414894F854202968C01C00FA55
:1006800002F2114217D021680A68920713D50A684E
:1006900022F002020A6094F854108840A860E06CCE
:1006A00040F00400E06484F8357084F83460A16C94
:1006B00009B12046884794F8542010212B6801FA8C
:1006C00002F2134219D0206803681B0715D507688A
:1006D00031237F0327D5AA6020680168090302D46B
:1006E00084F8353005E00068000302D5412084F825
:1006F0003500216C09B12046884794F85410202019
:100700002B6800FA01F2134236D021680B68DB0631
:1007100032D50B685B031CD5AA6020680168090309
:100720000DD4616C0FE00268D20503D4026822F098
:100730000802026094F854008140A960D0E7006884
:10074000000319D5E16B002916D02046BDE8F04121
:1007500008470A68D20503D40A6822F010020A602A
:1007600094F8542011219040A860E06CE06484F873
:10077000351084F83460E5E7BDE8F08101008000C1
:100780002DE9F041040020D01F4D0220626A84F858
:100790003500201D90E80B10084354F8141B43EA61
:1007A0000C03184394E8C0500B68143C40EA060060
:1007B00040EA070040EA0C0003EA050340EA0E00A5
:1007C000042A40EA030003D006E00120BDE8F081DE
:1007D000D4E90B231A43104308602168606A4A6910
:1007E000042822F0070240EA020001D1A26A104365
:1007F0004861204602F050FD0021E164012084F8A8
:1008000035000846E2E700003F8010F070B504466E
:1008100090F8340001281ED0012584F834500220BD
:1008200084F835002068056825F00105056020463C
:1008300002F009FC2068016841F01E010160206897
:10084000416941F0800141612068016841F0010186
:100850000160002070BD022070BD31B500F008F9C4
:10086000044600F005F90099001B8842F9D338BD11
:1008700070470000044910B50A68024202D00860BF
:10088000FFF7F6FF10BD0000143C01402DE9F84FC2
:10089000DFF89CE100224FF001084FF0030B4FF00E
:1008A0000F0A00BF0B6808FA02F42340A34271D17B
:1008B0004D68022D01D0122D0FD1D5080E695707B2
:1008C00000EB8505A9462D6AFF0E0AFA07FCBE401B
:1008D00025EA0C052E43C9F820600F7955000668FB
:1008E0000BFA05FC07F0030726EA0C06AF40374376
:1008F00007604E68012E05D0022E03D0112E01D0C4
:10090000122E0ED18668CF6826EA0C06AF40374318
:10091000876046680F79A643C7F3001797403743AF
:100920004760C4688E6824EA0C04AE402643C66063
:100930004C68E40075D53F4C256845F4804525603A
:10094000246822F00306950704F4804400943A4C8E
:100950002D0F2644D6F80848DFF8E0C00AFA05F75C
:10096000604524EA070401D100272EE0344FB84245
:1009700001D1012729E0334FB84201D1022724E0F9
:10098000314FB84201D103271FE0304FB84202D1A6
:1009900004271AE045E02E4FB84201D1052714E0A4
:1009A0002C4FB84201D106270FE02B4FB84201D19E
:1009B00007270AE0294FB84201D1082705E0284F50
:1009C000B84201D1092700E00A27AF402743754606
:1009D000C6F808784E68DEF80040F60324EA0304FF
:1009E00000D51C43124E2C60361D4D683468AD0393
:1009F00024EA030400D51C430D4F346008374D68CA
:100A00003C68ED0224EA030400D51C43084D3C6019
:100A10000C354E682C68B60224EA030400D51C434A
:100A20002C60521C102AFFF43DAFBDE8F88F000087
:100A3000003C0140443802400030014000000240C8
:100A40000004024000080240000C02400010024076
:100A50000014024000180240001C02400020024026
:100A6000002402400AB1816170470904FBE70000DD
:100A700001480068704700000000002010B590F8A1
:100A80003520022A33D090F83520122A2FD090F842
:100A90003520222A2BD090F83520322A27D090F802
:100AA0003520422A23D090F83420012A1FD0012279
:100AB00080F83420022380F8353003681C6824F065
:100AC00001041C6003681C6824F480541C600368E3
:100AD0001C680C431C6001680B6843F001040C6047
:100AE000002380F8352080F83430184610BD0220ED
:100AF00010BD000070B5040004D094F83500002546
:100B000010B106E0012070BD204684F8345000F09A
:100B100047F8022084F835002068016821F00101BF
:100B20000160D4E9001020F07060086120688168DD
:100B300021F400418160A06830B1E1680129216899
:100B400006D040F404408860E068022803D006E044
:100B500040F40040F7E721684FF40060486001224C
:100B600020680E4B41681943416054F8106B0BCC60
:100B7000084340EA0320F06054F81C3CD4E900012B
:100B80000843186054F81C0D016841F00101016030
:100B9000A56384F83520002070BD000000800002AD
:100BA000F0B5194F12250268012318480321184C8B
:100BB0000426BA4287B010D10A020496CDE9023168
:100BC000CDE900256946FFF761FE206840F400107A
:100BD0002060206800F4001013E00E4FBA4211D1DB
:100BE000CDE902314FF440626946CDE90025049613
:100BF000FFF74CFE206840F480002060206800F47D
:100C00008000059007B0F0BD005400400004024091
:100C1000403802400058004002480168491C016009
:100C20007047000000000020074810B5016841F43B
:100C300000710160032000F067F8012000F006F861
:100C400000F015F8002010BD003C024010B504462D
:100C500000F0E0FC4FF47A71B0FBF1F000F0E6FF39
:100C600000222146501E00F02FF8002010BD052064
:100C700010B500F049F800226FF00B00114600F0AB
:100C800023F800226FF00A00114600F01DF8002240
:100C90006FF00900114600F017F80022101F1146EE
:100CA00000F012F802220121BDE81040881E00F079
:100CB0000BB8410900F01F028900012001F1E02179
:100CC0009040C1F8000170470E4BF0B41B680D4610
:100CD000C3F30223C3F10706042E00D90426191D0D
:100CE000072901D2002300E0DB1E012404FA06F1EB
:100CF0009C40491E2940641E994014402143F0BC89
:100D000002F0C6B90CED00E0064900F0070210B58C
:100D10004FF6FF040868044B204040EA02201843C5
:100D2000086010BD0CED00E00000FA051848F8B5A9
:100D3000016841F0805101600068164C00F080505D
:100D40000090206840F480302060FFF791FE4FF45F
:100D50007A76054605E000BFFFF78AFE401BB042E9
:100D60000FD86068C003F7D5206840F400302060D9
:100D7000FFF77EFE054606E0FFF77AFE401BB04215
:100D800001D90320F8BD60688003F5D50020F8BDC7
:100D900040380240007000402DE9F84F04460078CA
:100DA000DFF828844FF000063546C0070ED0D8F88B
:100DB000001021F40001C8F80010D8F80010626B90
:100DC0001143C8F80010606B00B9012620680003C9
:100DD00010D5FE48E26B8430016821F440111143C4
:100DE0000160E06BB0F5801F01D010B102E0012678
:100DF00000E001252068C00210D5F448226C843040
:100E0000016821F4400111430160206CB0F5800FAE
:100E100001D010B102E0012600E001252068C101E7
:100E200000D50126800657D5E8483830016841F0E2
:100E3000805101600068DFF8989300F080500090C6
:100E4000D9F8001041F48071C9F80010FFF710FEC6
:100E5000074604E0FFF70CFEC01B64287ED8D9F8D3
:100E60000000C005F6D5D94F218E6837386801F4E7
:100E7000407100F4407088422ED03868396820F400
:100E8000407041F4803139608207396821F4803143
:100E9000396038600FD5FFF7EBFD814641F2883AA3
:100EA00006E000BFFFF7E4FDA0EB09015145D5D8EE
:100EB00038688007F6D5206BC0F3012103297CD068
:100EC000D8F8001021F4F811C8F80010218E386805
:100ED000C1F30B01084338602078C00609D5BB4830
:100EE0008430016821F0807101600168A26B1143B8
:100EF00001602188B5488830490405D5626E0168D3
:100F000021F44031114301602188090405D5A26E06
:100F1000016821F44021114301602168C90305D50E
:100F2000E26E016821F440111143016021688903D8
:100F300005D5226F016821F4400111430160217839
:100F4000490605D5626C016821F003011143016077
:100F50002178090607D5A26C016800E0FEE021F0C7
:100F60000C01114301602188C90505D5E26C0168B7
:100F700021F03001114301602188890505D5226DDA
:100F8000016821F0C001114301602188490505D5A0
:100F9000626D016821F440711143016021880905E7
:100FA00005D5A26D016821F44061114301602188DB
:100FB000C90407D5E26D016800E023E021F4405147
:100FC000114301602188890405D5226E016821F44E
:100FD0004041114301602168490205D5A26F0168B3
:100FE00021F08061114301602168890215D5E26F0B
:100FF000016821F0006111430160E16FB1F1006F00
:101000000AD00AE0734AD8F80030104023F4F812EE
:101010000243C8F8002059E7012521680A0700D5D6
:101020000125490305D5626F016821F04071114324
:1010300001602168090206D5D4F88020016821F0FA
:10104000805111430160012E4FF4403B4FF0706A14
:101050004FF0E04903D02068B0F1007F7DD15B4EB6
:10106000083E306820F080603060FFF701FD0746E1
:1010700005E000BFFFF7FCFCC01B64286ED8534896
:10108000083800680001F5D42078DFF840E1C00797
:101090000EF17C0E33D0606B88BBDEF800C09BFA8B
:1010A000ABF7DEF8002047F6C076B7FA87F860683D
:1010B0000CF440319AFAAAFC21FA08F196FAA6F744
:1010C000BCFA8CF8B7FA87FC9BFAABF602F07062B8
:1010D00000FA0CF0B6FA86F69AFAAAF722FA08F2A3
:1010E000B14099FAA9FCA668B7FA87F70843BA4055
:1010F000BCFA8CF110438E403043CEF800002068DB
:10110000010303D5E16BB1F5801F05D0C00241D5C5
:10111000206CB0F5800F3DD1DEF800109BFAABF6E5
:1011200047F6C07CB6FA86F7DEF8006001F440317D
:1011300060689CFAACFCF9409AFAAAF7BCFA8CFCFD
:10114000B7FA87F89BFAABF399FAA9F700FA0CF013
:10115000B7FA87F7B3FA83FC01E08DE007E101FA03
:101160000CF106F0E046E36899FAA9F2FE4003FAB2
:1011700008F3B2FA82F7154A08438432BE40184396
:101180003043CEF800001068616A20F01F00491E4D
:10119000084310602068C00139D5DEF800209AFAB3
:1011A000AAF1DEF8003047F6C07602F07062B1FABC
:1011B00081F199FAA9FC9BFAABF7CA4096FAA6F618
:1011C0000092BCFA8CFCB7FA87F705E008380240B9
:1011D00000700040FFFCFF0F2269B6FA86F86168D4
:1011E0009AFAAAF603F0E040BA4001FA08F1114376
:1011F000009AB6FA86F699FAA9F720FA0CF0B240EE
:10120000B7FA87F61143B0400143CEF800102068CA
:10121000800120D504F1080147F6C0709BFAABFCB1
:1012200090FAA0F260688AC9B2FA82F2BCFA8CF82D
:101230009AFAAAFC904099FAA9F6BCFA8CFC07FA33
:1012400008F703FA0CF3B6FA86F63843B1401843B0
:101250000843CEF800007B4E306840F0806030607C
:10126000FFF706FC074604E0FFF702FCC01B6428FA
:101270007DD830680001F7D5002D79D0714D2868F0
:1012800020F080502860FFF7F3FB064605E000BF22
:10129000FFF7EEFB801B642869D86A480068C043EA
:1012A0008000F5D56748216888300A0301D5E26BD4
:1012B0001AB1C9023CD5216CD1BB02689BFAABF6CE
:1012C00047F6C071B6FA86F7066802F4403291FA22
:1012D000A1FC6169FA409AFAAAF7BCFA8CFC9BFA65
:1012E000ABF501FA0CF1B7FA87F899FAA9F7B5FA54
:1012F00085FCA56906F0E04602FA0CF2B7FA87F71A
:1013000099FAA9F3FE4011434E4A05FA08F5B3FADB
:1013100083F38C329E402943314301606FF0FF0715
:101320001168A36A21F4F85107EB032319431160F4
:101330002168890235D5E16FB1F1006F31D10168C3
:101340009AFAAAF2056847F6C07601F0706196FA3B
:10135000A6F7B2FA82F299FAA9F69BFAABFC21FA47
:1013600002F8216AB6FA86F6BCFA8CFC01E060E06D
:1013700066E06269B7FA87F701FA0CF19AFAAAFCFB
:10138000BA4005F0E04599FAA9F3BCFA8CF7F540AC
:101390000A4308FA07F1B3FA83F30A439D402A434C
:1013A00002602178090736D5036802689BFAABF71B
:1013B0009AFAAAFC47F6C07102F44032214DB7FAFE
:1013C00087F891FAA1F7616922FA08F2BCFA8CF861
:1013D000B7FA87FC9BFAABF603F0706301FA0CF1E5
:1013E000B6FA86F623FA08F39AFAAAF7B24099FAFF
:1013F000A9FCE669B7FA87F78C351143BB40BCFA04
:101400008CF219439640314301602868E16A20F468
:101410004030084328600B4C206840F0805020602A
:10142000FFF726FB054607E0FFF722FB401B642879
:1014300002D90320BDE8F88F2068C0438000F3D4B0
:101440000020F7E7003802402DE9F047DFF8BC91B3
:101450000E4605466E4841F28838D9F800106C4CAB
:1014600001F00F010834B1425AD2D9F8002022F01D
:101470000F023243C9F80020D9F8001001F00F0123
:10148000B14270D12978890705D5AA68216821F071
:10149000F001114321602978C90729D06968012921
:1014A00014D00068022914D0800700285BDA206875
:1014B00020F0030008432060FFF7DAFA0646686868
:1014C00001280FD00228474619D024E00068800385
:1014D000EBE78001E9E700BFFFF7CAFA801BB842DB
:1014E00001D964E047462068C0F381000128F3D1A8
:1014F00073E000BFFFF7BCFA801BB84257D82068E2
:10150000C0F381000228F5D167E000BFFFF7B0FA11
:10151000801BB8424BD8206810F00C0FF6D15CE06D
:101520002978890705D5AA68216821F0F0011143BF
:1015300021602978C90741D06968012914D0006861
:10154000022914D08007002845DA206820F0030023
:1015500008432060FFF78CFA0746686801280ED020
:10156000022818D026E036E000688003EBE780010F
:10157000E9E700BFFFF77CFAC11B414517D8206897
:10158000C0F381000128F5D118E000BFFFF770FA21
:10159000C11B41450BD82068C0F381000228F5D15A
:1015A0000CE000BFFFF764FAC11B414502D90320DC
:1015B000BDE8F087206810F00C0FF3D1D9F80010C7
:1015C00021F00F013143C9F80010D9F8000000F0F4
:1015D0000F00B04201D00120EAE72878400705D586
:1015E000E968206820F4E05008432060287800076C
:1015F00006D52869216821F4604141EAC0002060D5
:101600000120FFF723FB0020D2E70000003C02404E
:101610000038024000B500F043F80849F0230A689A
:1016200093FAA3F3064902F0F002B3FA83F3DA4027
:10163000044B9A5CD040086000BD000008380240AE
:10164000040000209C4C000800B5FFF7E3FF0749A9
:101650004FF4E052096892FAA2F201F4E051B2FAB2
:1016600082F2D140024A515CC84000BD08380240B5
:101670009C4C000800B5FFF7CDFF07494FF46042CE
:10168000096892FAA2F201F46041B2FA82F2D14002
:10169000024A515CC84000BD083802409C4C00081A
:1016A0001D4930B51D48096811F00C011AD04310CE
:1016B000042916D0082915D1174947F6C072091F09
:1016C0000C680D6804F03F046D020CD50D68B3FB87
:1016D000F4F092FAA2F31540B3FA83F2D5406843CE
:1016E0000BE0184630BD0B68B0FBF4F092FAA2F4A0
:1016F0001340B4FA84F2D340584309684FF440329F
:1017000092FAA2F201F44031B2FA82F2D140491CBD
:101710004900B0FBF1F030BD083802400024F4006D
:101720002DE9F84FE34E04460078A6F10409A9F12B
:101730000405C00766D03068C0F38100012808D0D6
:101740003068C0F3810002280AD1D9F800004002B5
:1017500006D52868800355D56068002876D051E00A
:10176000286820F480302860286820F480202860D1
:10177000286820F480302860FFF77AF9074604E0F3
:10178000FFF776F9C01B642876D828688003F7D461
:10179000286820F4803028606068B0F5803F10D061
:1017A000B0F5A02F286810D020F480202860286889
:1017B00020F4803028606068B8B1FFF759F9074617
:1017C0000FE0286820F4802001E040F480202860A9
:1017D000286840F48030EDE7FFF74AF9C01B642821
:1017E000D2D828688003F7D50CE0FFF741F9074607
:1017F00005E000BFFFF73CF9C01B6428C4D8286887
:101800008003F7D42078800746D530684FF0F80879
:1018100010F00C0F08D03068C0F3810002280AD104
:10182000D9F80000400206D42868800718D5E0687F
:1018300001280BD114E0E068002828681DD040F092
:1018400001002860FFF714F9074606E02FE100BF0A
:10185000FFF70EF9C01B642896D828688007F7D5D3
:1018600020692A6898FAA8F1B1FA81F1884022F03B
:10187000F801014329600FE096E020F001002860A4
:10188000FFF7F6F8074604E0FFF7F2F8C01B6428FC
:10189000A6D828688007F7D42078000729D585487E
:1018A00061696C3000298046016811D041F0010166
:1018B0000160FFF7DDF8074605E000BFFFF7D8F845
:1018C000C01B642870D8D8F800008007F6D510E057
:1018D00021F001010160FFF7CBF8074605E000BFEA
:1018E000FFF7C6F8C01B64285ED8D8F80000800750
:1018F000F6D42078400776D56E483830016841F03C
:10190000805101600068DFF8B08100F080500090E5
:10191000D8F8001041F48071C8F80010FFF7A8F85B
:10192000074604E0FFF7A4F8C01B64283CD8D8F8A9
:101930000000C005F6D55F4F6837386820F0010019
:101940003860386820F004003860386820F0010002
:101950003860FFF78DF8824641F2883806E000BF14
:10196000FFF786F8A0EB0A0141451DD838688007CB
:10197000F6D4386820F001003860A06801280FD044
:101980000528386811D020F004003860386820F04D
:1019900001003860A068C8B1FFF76AF8824611E01C
:1019A000386820F0040002E079E040F0040038607C
:1019B000386840F00100ECE7FFF75AF8A0EB0A01A5
:1019C00041456CD838688007F6D50CE0FFF750F831
:1019D000824605E0FFF74CF8A0EB0A0141455ED8CE
:1019E00038688007F6D4A069E8B33168C1F3810193
:1019F00002295CD00228286820F08070286003D07B
:101A0000FFF736F804464DE0FFF732F8064604E0EB
:101A1000FFF72EF8801B642841D828688001F7D48E
:101A200047F6C0704FF0FF364FF4403790FAA0F2FF
:101A300004F1200097FAA7F7B2FA82F20BC84FF030
:101A4000706CB7FA87F706EB5303E6699140E26AD8
:101A50009CFAACF4BB401943B4FA84F330439A4087
:101A60000843104300E020E040F00050C9F80000B7
:101A7000286840F080702860FEF7FAFF044604E012
:101A8000FEF7F6FF001B642809D828688001F7D507
:101A90000BE000BFFEF7ECFF001B642802D9032017
:101AA000BDE8F88F28688001F4D40020F8E7012011
:101AB000F6E7000008380240007000402DE9F041D0
:101AC000040004D094F85D00002518B107E001205F
:101AD000BDE8F081204684F85C5000F053F8022302
:101AE00084F85D3020684FF4E066016821F0400121
:101AF0000160E068B04201D9002101E04FF480515B
:101B0000B0F5706F02D0B04200D0A5620122276B01
:101B100027B9B04201D9236300E02263D4E9010C64
:101B2000D4E90436278B40EA0C0033431843D4E948
:101B3000076307F400773843A76A304326681843E1
:101B400038433060206B022804D12068036843F4D6
:101B500000630360A7694FF0040C666B606AE3687A
:101B60000CEA1747D4F800E030433B4318430843DE
:101B7000CEF804002168E06A08610020256684F838
:101B80005D20A5E710B5006886B00E49884217D1E0
:101B90000D480021026842F48052026000680DF195
:101BA000080C022200F480500590032305248CE8E1
:101BB0001A0038206946CDE900020448FEF766FEA7
:101BC00006B010BD0030014044380240000402401D
:101BD00004284FF0E020016903D021F004010161E5
:101BE000704741F00401FAE710B50C4C207870B151
:101BF0000B4802F01BFC0A4890F8D00238B1A168EB
:101C000004F11C02D1E9021003681B6898470549DA
:101C100005480968A1610068606110BD08000020E6
:101C20008004002024040040240C0040401EB0F139
:101C3000807F10B501D3012010BD4FF0E02460611A
:101C40000F21601701F024FA0020A0610721216113
:101C500010BD10B5FFF7C8FF10BDF0B590F83820E3
:101C6000012A29D0012380F8383002224FF0000CDD
:101C700080F83920D1E90146D1E90325D1F800E007
:101C800016434A6934430E8B4EEA040E8B6A45EACA
:101C90000E058F8C2A4350F838EB1343D1E90741E6
:101CA00043EA064242EA075214432143CEF8441065
:101CB00080F800C00020F0BD0220F0BD70B590F8A3
:101CC0003820012A1FD0012280F8382002680F4CEA
:101CD0005368A242956802D00D4CA24203D14C68D1
:101CE00023F4700323430C688968002623F07003F3
:101CF0001C43546025F0800502682943916080F8F8
:101D00003860304670BD022070BD00000000014008
:101D10000004014010B5040003D094F8390010B15C
:101D200004E0012010BD204600F00CF8022084F8E9
:101D300039002068211D00F047FE012084F8390099
:101D4000002010BD08B500680C49884208D10C4835
:101D5000016841F004010160006800F004000BE03C
:101D60000849884209D10648001D016841F0020176
:101D70000160006800F00200009008BD000800400B
:101D8000403802400004014070B5044690F8380025
:101D9000012817D03A4E012584F83850022084F8E3
:101DA000390022689068304020F47F4090600868D5
:101DB000502839D00DDC20285BD005DC98B31028E2
:101DC00043D153E0022070BD302855D040283CD18B
:101DD00041E0602830D070280CD0B0F5805F03D08F
:101DE000B0F5005F31D112E02068254A7032816879
:101DF000114016E04A682068D1E9021300F051FE54
:101E000021688868304040F0770088601DE04A68AB
:101E10002068D1E9021300F044FE2068816841F493
:101E20008041816011E01EE0CA684968206801F0C5
:101E300047FA2068502106E0CA684968206801F026
:101E400050FA2068602101F0E3F9002084F839504D
:101E500084F8380070BDCA684968206801F030FA1B
:101E600020684021EFE720680021ECE7206810217E
:101E7000E9E720682021E6E720683021E3E7000059
:101E800088FFFEFF2DE9F04104000D4603D094F8D1
:101E9000390018B108E00120BDE8F081002084F885
:101EA0003800204600F042F81F4A022084F839002A
:101EB00020688168114081602068211D00F084FD48
:101EC000226840F20336AF6940F60C4C2B684FF2A3
:101ED000F00EA86891680B439169B14341EA07216C
:101EE0000843D5E9031720EA0C00D5E9076C20EA7E
:101EF0000E00D2F820E03F0140EA062668686D69CE
:101F0000314347EA0C37936023680F4301229F61F6
:101F10002EF0AA0141EA051321681843086284F8EB
:101F200039200020B8E70000F8FFFEFF30B5144D5F
:101F3000002304680221134A87B01348AC4209D138
:101F4000146844F002041460126802F00202059260
:101F5000C0220BE00D4DAC4210D1146844F00804CF
:101F60001460126802F00802059203220092CDE983
:101F70000113CDE903316946FEF788FC07B030BD97
:101F8000000400404038024000000240000C0040C5
:101F900010B50446006891B1042904D00122002143
:101FA00000F074FD206801225FF0040100F06EFD76
:101FB0002068016841F001010160002010BD01228C
:101FC0000021F3E700B50F4B00220068022185B025
:101FD000984208D14FF440508DE80700CDE9032125
:101FE000094869460AE0094B984209D14020032379
:101FF0008DE8070006486946CDE90323FEF746FC55
:1020000005B000BD00080040000C02400004014083
:102010000008024070B5044690F838000D460128CB
:102020000ED0012684F83860022084F839000C2A8A
:1020300045D007DC5AB1042A1BD0082A78D12CE0FD
:10204000022070BD102A4ED0142A71D15DE02068A4
:1020500000F030FD2068816941F00801816120684D
:10206000816921F00401816120682A698169114335
:1020700011E0206800F052FD2068816941F40061A0
:1020800081612068816921F480618161206829690A
:10209000826942EA012181614AE0206800F074FD12
:1020A0002068C16941F00801C1612068C16921F05F
:1020B0000401C16120682A69C169114311E02068E7
:1020C00000F098FD2068C16941F40061C161206899
:1020D000C16921F48061C16120682969C26942EA4D
:1020E0000121C16124E0206800F0E4FF2068416D17
:1020F00041F0080141652068416D21F0040141650E
:1021000020682A69416D114311E0206800F0FEFF4C
:102110002068416D41F4006141652068416D21F402
:102120008061416520682969426D42EA012141656B
:10213000002084F8396084F8380070BD10B50400C0
:1021400003D094F8390010B107E0012010BD002041
:1021500084F83800204600F00CF8022084F839009A
:102160002068211D00F030FC012084F83900002097
:1021700010BD704710B501220446006800F086FCCF
:1021800008492068884202D00749884203D1416C3F
:1021900041F4004141642068016841F0010101609F
:1021A000002010BD0000014000040140704710B540
:1021B000040003D094F8690010B107E0012010BDBD
:1021C000002084F86800204600F026F8022084F8F9
:1021D00069002068016821F001010160204600F0DB
:1021E000C1FD0128EBD0606A10B1204600F02EFD41
:1021F0002068416821F4904141602068816821F0A5
:102200002A0181602068016841F0010101602046D7
:10221000BDE8104000F07EBD2DE9F047334F064683
:10222000006800250221012203230724B84286B05A
:1022300045D12F48A946056845F01005056000689E
:1022400000F01000059058028DE81F0029486946EB
:10225000FEF71CFB294C4FF000674FF480682649BD
:10226000FD1420464FF4403AC4E90299C4E90489B8
:10227000C4E90695C4E908A9C4E90017FEF780FA85
:102280002946746604F15805A66340234846DFF8E2
:1022900068C0C5E90239C5E9048905F118080CF1DF
:1022A000780C88E80304C5F824902846C5E900C7DF
:1022B000FEF766FA3566AE6306B0BDE8F087104DEE
:1022C000A842F9D10A48001F056845F48025056039
:1022D000006800F4802005904FF440708DE81F00E6
:1022E00008486946FEF7D2FAE6E700000010014010
:1022F00044380240000002404064024028010020AF
:1023000000480040000C024070B5044690F8690097
:10231000012803D094F86900122835D179B372B33B
:1023200094F8680001282FD00025E56694F86930FC
:1023300001206165A4F85820122B84F8680021D090
:102340005FF0220084F86900636E1048D863636E02
:102350000F481864636E0F4898640846666E13460B
:102360002168024630462431FEF750FA2068816821
:1023700041F040018160002084F8685070BDFFE7A3
:102380000120FBE73220DDE70220F7E735320008C5
:10239000213200086F3000087047704770B504465E
:1023A00090F86900012803D094F86900222838D1F8
:1023B00091B38AB394F86800012832D0E164002513
:1023C000A4F850200120E56694F8693084F868008C
:1023D000222BA4F8522022D05FF0120084F869006A
:1023E000236E1148D863236E10481864236E10487A
:1023F000986413462668206E06F12802FEF706FA56
:102400002168402008622068816841F08001816075
:10241000002084F8685070BDFFE70120FBE7322000
:10242000DCE70220F7E700006B3200082B320008DF
:102430006F300008704770477FB50E4800240C4984
:102440000125C0E900148460046184610462C462EF
:10245000C460C56145610463FEF756F8042069460F
:10246000CDE9000503480294FDF79CFF7FBD000005
:1024700000200140500200207FB50E4800240C4986
:102480000125C0E900148460046184610462C462AF
:10249000C460C56145610463FEF736F805206946EE
:1024A000CDE9000503480294FDF77CFF7FBD0000E5
:1024B00000210140980200207FB50E4800240C49FD
:1024C0000125C0E900148460046184610462C4626F
:1024D000C460C56145610463FEF716F80A206946C9
:1024E000CDE9000503480294FDF75CFF7FBD0000C5
:1024F00000220140E00200200D4808B5016841F4C7
:102500008001016000680122022100F48000009037
:102510003A20FEF7D9FB3A20FEF7CBFB012202213D
:102520004620FEF7D1FBBDE808404620FEF7C1BBC0
:102530003038024057482DE9F0470168002486B042
:1025400041F010010160016801F01001059101687E
:1025500041F080010160016801F08001059101688E
:1025600041F004010160016801F004010591016876
:1025700041F001010160016801F00101059101686C
:1025800041F002010160016801F00201059101685A
:1025900041F00801016000680022DFF8FCA00E2174
:1025A00000F0080005905046FEF75CFADFF8EC807A
:1025B0004FF40076002231464046FEF753FADFF82A
:1025C000E090002240214846FEF74CFA01250C20FD
:1025D00011218DE8330069465046FEF757F9009601
:1025E0006946CDE9015440460394FEF74FF92D4F5B
:1025F000E80369460294CDE900072B48FEF746F947
:1026000002260294A8026946CDE900060F20CDE912
:1026100003404046FEF73AF94FF4C0506946CDE911
:10262000000740460294FEF731F903206946CDE9E0
:1026300000071E480294FEF729F940206946CDE9BB
:102640000005CDE902564846FEF720F9CDE90065C0
:10265000CDE9026469465046FEF718F901220620CA
:102660001146FEF731FB0620FEF723FB012207206F
:102670001146FEF729FB0720FEF71BFB0022012174
:102680002820FEF721FB2820FEF713FB06B0BDE84B
:10269000F08700003038024000100240000802407D
:1026A000000402400000311000000240000C024013
:1026B0000C48002110B50A4C01230B4A0460C0E904
:1026C0000121C0E9033141618161C1610162FEF70D
:1026D00011FABDE8104003480021FEF7CFB9000011
:1026E00000540040D80100200D0300600C48002178
:1026F00010B50A4C01230B4A0460C0E90121C0E96E
:10270000033141618161C1610162FEF7F3F9BDE806
:10271000104003480021FEF7B1B900000058004006
:102720001402002068474020F0B40F484FF4E064E2
:1027300000210C4E4FF482752823C0E90214016178
:102740007215E0E805650724082580E80E00C160E1
:102750000161C0E90514C0E90715F0BC0248FFF7A4
:10276000ADB90000003001402803002010480121CD
:1027700010B500240D4B8CB00322C0E900348460F6
:10278000C46004610092CDE9014103940494CDE951
:102790000541694607940894FFF774FB044809A9AA
:1027A00009940B94FFF78AFA0CB010BD00040040A6
:1027B0008C0300201A484DF2F02130B50123174D4B
:1027C000002420228FB00461C0E90221C0E9005337
:1027D000FFF7A0FAA8140A9011480AA9FFF7D4FA43
:1027E0000F48FFF7ABFC0E4807A907940994FFF7C1
:1027F00065FA602049F634618DE81300084800222C
:1028000069460494FFF706FC054804226946FFF771
:1028100001FC0348FFF7D6FB0FB030BD00080040B5
:10282000C80300201048012110B500240D4B8CB0C6
:102830000322C0E900348460C46004610092CDE9E1
:10284000014103940494CDE9054169460794089435
:10285000FFF718FB044809A909940B94FFF72EFA17
:102860000CB010BD000C00400404002024484CF2C1
:10287000503110B50024214B9AB0D822C0E9024152
:1028800004614461C0E90032FFF744FA4FF480501C
:1028900015901B4815A9FFF777FA1948FFF74EFC6A
:1028A000174812A9129413941494FFF707FA4FF4DF
:1028B00000500094019401030294CDE90440039474
:1028C0000694CDE907410E48694609940A94FFF73A
:1028D000C4F90BAA46F2A811602082E81300084848
:1028E00000220BA90E940F9410941194FFF792FB01
:1028F0000348FFF767FB1AB010BD00000004014059
:10290000400400200A48002130B4084C0C224FF447
:1029100061230460C0E90131C160C0E90412816132
:10292000C1610162416230BCFFF741BC001001404F
:10293000480000200A48002130B4084C0C224FF413
:1029400061230460C0E90131C160C0E90412816102
:10295000C1610162416230BCFFF729BC0048004000
:10296000B800002010B5FEF757F9BDE81040FFF79A
:1029700070B90000104A30B51048146800210F4BA0
:1029800044F470041460083305680D4A0D4C45F09A
:102990000105056019600368051D1340074A0360BF
:1029A0000C322C600568E305034C25F48025056096
:1029B000803C1160236030BD88ED00E000380240AB
:1029C000FFFFF6FE10300024F0B5254B4FF0804E8F
:1029D000244D02689842244E244F254C09D070455E
:1029E00007D0A84205D0B04203D0B84201D0A042DF
:1029F00005D1D1F804C022F070024CEA02029842DC
:102A00001BD0704519D0A84217D0B04215D0B8429B
:102A100013D0A04211D0174DA8420ED0164DA84297
:102A20000BD0164DA84208D0154DA84205D0154D23
:102A3000A84202D0144DA84203D1CD6822F44072BE
:102A40002A4302608A689842C2620A68826201D0A0
:102A5000A04201D10969016301214161F0BD00007B
:102A6000000001400004004000080040000C00404D
:102A70000004014000400140004401400048014082
:102A800000180040001C00400020004010B5046AFF
:102A900001238A408B409C430462016A1143016216
:102AA00010BD42EA032283680A4323F47F410A43AC
:102AB00082607047F0B5026A164B154F22F0010292
:102AC00098420262066A4268846926F002068B68B0
:102AD0000D6804EA070424F0030443EA060345EA08
:102AE000040502D00C4CA0420BD1CC6822F44077F4
:102AF000D1E9056223F008031C433E43324324F02E
:102B0000040342608561496841630362F0BD0000CF
:102B10008FFFFEFF0000014000040140F0B5026A93
:102B2000174B164D22F0100298420262046A426866
:102B3000836924F020048F680E6803EA050323F4F8
:102B4000407544EA071345EA062402D00D4DA84219
:102B50000ED1CD6823F08003D1E9056722F44062ED
:102B600043EA051342EA860223F0400342EA870261
:102B700042608461496881630362F0BDFF8FFFFE9C
:102B80000000014000040140F0B5026A174B164FE7
:102B900022F4807298420262056A4368C26925F491
:102BA00000758E6802EA07020C6822F0030745EA06
:102BB000062244EA070402D00D4DA8420ED1CD688A
:102BC00022F40062D1E9056723F4405342EA05226A
:102BD00043EA061322F4806243EA07134360C461A8
:102BE0004968C1630262F0BD8FFFFEFF0000014033
:102BF00000040140F0B5026A124B114F22F48052DA
:102C000098420262046A4268C36924F400548E68E0
:102C10000D6803EA070323F4407344EA063443EAE9
:102C2000052302D0084DA84204D14D6922F4804208
:102C300042EA85124260C361496801640462F0BDE2
:102C4000FF8FFFFE000001400004014090F82410B7
:102C5000C90706D00168836A4A6822F400321A4321
:102C60004A6090F82410890706D50168C36A4A684B
:102C700022F480321A434A6090F82410490706D59E
:102C80000168036B4A6822F480221A434A6090F874
:102C90002410090706D50168436B4A6822F40042F4
:102CA0001A434A6090F82410C90606D50168836B60
:102CB0008A6822F480521A438A6090F824108906A8
:102CC00006D50168C36B8A6822F400521A438A60F1
:102CD00090F82410490611D50168036C4A6822F463
:102CE00080121A434A60016CB1F5801F06D1016859
:102CF000436C4A6822F4C0021A434A6090F82410D8
:102D0000090606D50168826C486820F4002010434B
:102D10004860704770B5002504466FF07E46C56672
:102D200000680068000707D5002233464FF4001101
:102D3000204600F03FF958B920680068400709D5DF
:102D4000002233464FF48001204600F033F908B1E9
:102D5000032070BD012084F86900002084F86850C9
:102D600070BD00002DE9F04704468068854B864F12
:102D70002668D4E90415E2690843D6F800C010219A
:102D800015430022284315460CEA030C7F4B4CEAFE
:102D9000000CC6F800C04FF400492068D4F80CC0FD
:102DA000466826F4405646EA0C0646602668D4F883
:102DB0002080A069D6F808C040EA08002CF4306CE6
:102DC0004CEA000CC6F808C02068B8420AD11B685B
:102DD00013F0030352D0012B7AD0022B76D0032BB1
:102DE00079D177E06A4EB0420AD11B6813F00C0328
:102DF0006AD0042B6CD0082B68D00C2B6BD169E007
:102E0000644EB0420AD11B6813F030035CD0102B23
:102E10005ED0202B5AD0302B5DD15BE05E4EB042AD
:102E20000AD11B6813F0C0034ED0402B50D0802B2A
:102E30004CD0C02B4FD14DE0584EB0420DD11B6845
:102E400013F4407340D0B3F5807F41D0B3F5007FD9
:102E50003CD0B3F5407F3ED13CE0514EB0420FD163
:102E60001B6813F4406309D0B3F5806F30D0B3F51D
:102E7000006F2BD0B3F5406F2DD12BE001212AE05C
:102E8000484EB0420DD11B6813F440531CD0B3F52B
:102E9000805F1DD0B3F5005F18D0B3F5405F1AD145
:102EA00018E0414EB04216D11B6813F440430BD0DA
:102EB000B3F5804F0CD04B4508D0B3F5404F0AD145
:102EC00008E005E002E0FFE7002104E0022102E063
:102ED000042100E00821E6694E4529D104291ED0CD
:102EE00005DC71B101290FD0022902D114E00829B3
:102EF00018D00125216822F00F00C2F342021043CE
:102F000038E0FEF7A1FB01E0FEF7B4FB616840008A
:102F1000B0FBF1F082B2EDE72449606805E0FEF70E
:102F2000BFFBF3E760684FF48031B1FBF0F0F1E7ED
:102F3000042918D005DC51B101290BD0022902D196
:102F40000BE0082918D001252846BDE8F087FEF7D8
:102F50007BFB0AE0FEF78EFB07E0154A6168B2FBD7
:102F6000F1F189B20BE0FEF79BFBD4E90012B0FB54
:102F7000F2F080B2C860E7E76168B9FBF1F1C160C7
:102F8000E2E70000F369FFEF0010014090380240D3
:102F90000044004000480040004C00400050004009
:102FA0000014014000780040007C00400048E80127
:102FB0000024F4002DE9F0471D4690460E460446D5
:102FC000FDF756FDB8F1000F07464FF000094FF02E
:102FD000010808D030E0681C05D095B1FDF748FD28
:102FE000C01BA8420DD22068C06936EA0000F2D1A9
:102FF00027E0681C20D025B1FDF73AFDC01BA84290
:103000001AD32068036823F08003036020680368F4
:1030100023F0200303602068036823F480730360B7
:103020002068836823F00103836084F869800320AB
:1030300084F86890BDE8F0872068C06936EA00002F
:10304000D7D00020F6E730B50468256825F4802540
:103050002560046863608368402B036803D099602F
:103060000068C26030BD9A600068C16030BD10B5B4
:10307000806B00210122A0F85A10A0F8521080F8AD
:103080006920C16E41F01001C166FFF78FF810BDD5
:10309000090700284FEA116106DA00F00F0000F17D
:1030A000E02080F8141D704700F1E02080F8001443
:1030B00070470000F0B5026ADFF844C022F48032A5
:1030C0000262056A4268446D25F400350E89604548
:1030D0000C4F0B6804EA070445EA064543EA04037B
:1030E00002D0094CA04204D14C6922F4803242EA59
:1030F000042242604365496881650562F0BD0000B5
:10310000000001408FFFFEFF00040140F0B5026A9D
:10311000DFF844C022F480120262046A4268436D00
:1031200024F400140E8960450C4F0D6803EA070370
:1031300044EA065443EA052302D0094DA84204D1CB
:103140004D6922F4802242EA852242604365496843
:10315000C1650462F0BD000000000140FF8FFFFE6A
:1031600000040140284870B500250168B4B041F062
:1031700080510160006800F080503290234801685F
:1031800041F44041016000680224042200F4404000
:103190003290E003D82381010126CDE9274129A9F6
:1031A00081E81C002C94CDE9216021A8FEF7B8FA33
:1031B000FDF7BCFDE2024FF4A0510F20CDE9301223
:1031C0002DAA072182E831002DA8FEF73DF94CF227
:1031D00040101995102111961A9513910090684688
:1031E000FDF7DAFDFEF716FA4FF47A71B0FBF1F055
:1031F000FEF71CFD0420FEF7EBFC01210222881ED5
:10320000FDF762FD34B070BD4038024000700040F0
:10321000826822F070020A4342F007018160704721
:1032200010B5806BFFF7B9F810BD10B5806BFFF7D4
:1032300002F910BD10B501680968806BC9050FD48B
:103240000021A0F85A1001688A6822F040028A60C2
:1032500090F86910322906D05FF0010180F86910FA
:10326000FFF79AF810BD1221F8E710B50168096858
:10327000806BC9050DD40021A0F8521001688A683E
:1032800022F080028A600068016841F0400101601C
:1032900010BDFFF7CFF810BD01681823CAB2103A6D
:1032A000B2FBF3F2054B6FF30901032A9B5C436504
:1032B00000D9091D0165084670470000AC4C0008A4
:1032C00010B5036A046A23F00A0324F001040462BF
:1032D00084690B4324F0F00141EA02118161036229
:1032E00010BD10B5036A23F0100303628369046AFA
:1032F00023F4704324F0A00443EA0232826144EADA
:103300000111016210BD00004B496FF0706210B5F1
:10331000D1F8043323F44033C1F80433D1F8043333
:1033200044682343C1F8043301684B6823F4807375
:103330004B60016803694C6844EA03234B600168F1
:103340004B6823F040734B60016884684B682343EB
:103350004B6001688B6823F400638B600168C4686C
:103360008B6823438B60816AD14201688A6822F0AE
:1033700070628A6001680DD0836A8A681A438A6025
:1033800001688A6822F040528A600168C36A8A68CC
:103390001A4302E08A6822F040528A6001688A6813
:1033A00022F002028A60016882698B6843EA420265
:1033B0008A60016A002901684A6815D042F40062F7
:1033C0004A6001684A684FF4604322F460424A60F0
:1033D000016893FAA3F3426AB3FA83F44B68521E6E
:1033E000A24013434B6002E022F400624A6001688D
:1033F000124BCA6A22F47002CA620168848BCA6ADC
:1034000003EB04531A43CA6201688A6822F400720B
:103410008A600168026B8B6843EA42228A60016815
:103420008A6822F480628A60016840698A6842EA98
:103430008020886010BD0000002001400000F0FFE7
:1034400010B5084C0848616831B100220821FDF729
:1034500009FB0020606010BD01220821FDF702FB7E
:103460000120F7E7080000200010024000487047E4
:10347000644E000800487047854E000800487047B9
:103480009E4E000800487047BF4E00080048704735
:10349000E04E000800487047014F000800487047A0
:1034A000234F000800487047444F00080048704709
:1034B000574F000800487047784F00080048704791
:1034C0008C4F000800487047AD4F00080048704717
:1034D000C14F000800487047E24F000807499FEDC0
:1034E000050B016080ED020B80ED040B80ED060BF7
:1034F000704700000000000000000000684D000858
:103500002DE9F0410D78044600790E46A84204D218
:10351000E068A90000F004FEE0604FF000084046BB
:103520002571042511E07119725D4F788B7842EA9C
:103530000722CF7842EA034141EA0761A160E268CD
:1035400042F82010401C2D1DC0B221798142EAD8DA
:10355000207C775D6D1CB84204D2A069B90000F0F0
:10356000DFFDA0610020ED1C277411E07119725D70
:103570004F788B7842EA0722CF7842EA034141EA4A
:1035800007616161A26942F82010401C2D1DC0B284
:10359000217C8142EAD8207F775D6D1CB84204D23D
:1035A000606AB90000F0BCFD6062E81C002127776A
:1035B00018E03218001D03461268024404E0371870
:1035C000355C401C07F8015C8242F8D8951910461A
:1035D00033445B1E05F8018C2362626A42F8213095
:1035E000491CC9B2227F8A42E3D8BDE8F0810000BD
:1035F00000487047F84F000800487047B44C000876
:103600000048704719500008004870473A500008B9
:10361000004870474D500008004870476E50000841
:1036200070B5064B0A680668B2FBF3F5B2FBF3F41B
:1036300003FB1522331903600A6070BD00CA9A3B70
:1036400000487047C150000800487047E250000829
:1036500070B50446214800222149284B4FF490754B
:103660002060201D9FED230BC0E900121D49E26080
:103670001D48C4E90421A06104F120021C49236310
:10368000A1621A48206202F1580084ED0E0B84ED0D
:10369000100B1B4984ED120B2165294684ED160B96
:1036A00084ED180B84ED1A0B84ED1C0BFCF7C3FDA5
:1036B00004F5CC7013490160134981601030FFF7A5
:1036C0000DFF2030FFF70AFFA0F13004294620301B
:1036D000FCF7B1FDA4F5CC7070BD0000F44D0008FE
:1036E000544E0008B5510008F4500008F04C000892
:1036F000204D00080000000000000000384D0008C8
:10370000D84C0008084D0008504D000830B50C7822
:103710000A1D446008234D7844EA052444608D78EE
:1037200044EA05444460CD7844EA056444600C7979
:103730008460497944EA01218160947841EA044136
:103740008160D27841EA02618160184630BD000094
:1037500000487047F55000080048704716510008AF
:1037600000220249C0E90012826070470C4E000836
:103770000048704724510008004870474551000830
:1037800000487047545100080048704775510008C0
:10379000004870478451000800487047A551000850
:1037A0002DE9FC4190ED020B864610EE100A8DEDDE
:1037B000000B087001F1080CDDE9002501F1100390
:1037C00001F11804100A170C40EA05604870120E47
:1037D00047EA05478F7042EA0522CA70019A202005
:1037E0000A71019A120A4A71019A120C8A71019A9D
:1037F000120ECA719EED040B10EE102A8DED000B17
:103800000A72DDE90025160A46EA05664E72160CB4
:10381000120E46EA05468CF8026042EA05228CF850
:103820000320019A8CF80420019A120A8CF80520D2
:10383000019A120C8CF80620019A120E8CF80720BF
:103840009EED060B10EE102A8DED000B0A74DDE9DB
:103850000025160A46EA05664E74160C120E46EA54
:1038600005469E7042EA0522DA70019A1A71019AA1
:10387000120A5A71019A120C9A71019A120EDA7197
:103880009EED080B10EE102A8DED000B0A76DDE997
:103890000023150A45EA03654D76110C41EA034100
:1038A000A170110E41EA0321E17001992171019982
:1038B000090A61710199090CA1710199090EE1715F
:1038C000BDE8FC812DE9FC4180460C46083000F043
:1038D0005FF8002108EBC102491C92ED160B22187B
:1038E00010EE103A8DED000B2354DDE90035083061
:1038F000C9B22E062F044FEA052C46EA132555704F
:1039000047EA134595704CEA1363D370019B13711A
:10391000019B1B0A5371019B1B0C9371019B1B0E96
:10392000D3712429D6D3BDE8FC812DE9FC41804622
:103930000C46083000F0A4F8002108EBC102491C35
:1039400092ED140B221810EE103A8DED000B23545B
:10395000DDE900350830C9B22E062F044FEA052CE8
:1039600046EA1325557047EA134595704CEA1363F0
:10397000D370019B1371019B1B0A5371019B1B0C9C
:103980009371019B1B0ED3712429D6D3BDE8FC8112
:1039900070B506460C46083000F008F80546611977
:1039A00006F12800FFF7FCFE284470BD2DE9FC411C
:1039B00090ED020B844610EE100A8DED000B08709E
:1039C00001F10807DDE9002401F11003100A160CCB
:1039D00040EA04604870120E46EA04468E7042EADD
:1039E0000422CA70019A18200A71019A120A4A71B7
:1039F000019A120C8A71019A120ECA719CED040B85
:103A000010EE102A8DED000B0A72DDE90024150A74
:103A100045EA04654D72150C120E45EA0445BD7069
:103A200042EA0422FA70019A3A71019A120A7A71F2
:103A3000019A120CBA71019A120EFA719CED060BE2
:103A400010EE102A8DED000B0A74DDE90024150A32
:103A500045EA04654D74110C41EA04419970110E58
:103A600041EA0421D970019919710199090A597122
:103A70000199090C99710199090ED971BDE8FC8170
:103A800070B506460C46083000F008F80546611986
:103A900006F1280000F002F8284470BD2DE9FC4131
:103AA00090ED020B844610EE100A8DED000B0870AD
:103AB00001F10807DDE9002401F11003100A160CDA
:103AC00040EA04604870120E46EA04468E7042EAEC
:103AD0000422CA70019A18200A71019A120A4A71C6
:103AE000019A120C8A71019A120ECA719CED040B94
:103AF00010EE102A8DED000B0A72DDE90024150A84
:103B000045EA04654D72150C120E45EA0445BD7078
:103B100042EA0422FA70019A3A71019A120A7A7101
:103B2000019A120CBA71019A120EFA719CED060BF1
:103B300010EE102A8DED000B0A74DDE90024150A41
:103B400045EA04654D74110C41EA04419970110E67
:103B500041EA0421D970019919710199090A597131
:103B60000199090C99710199090ED971BDE8FC817F
:103B70002DE9F0410646007908704FF0000C81F8FD
:103B800001C0042481F802C00D46604681F803C0DC
:103B90000DE0F1682A1951F82010401C2955C0B2D7
:103BA0000B0A53700F0C9770090ED170241D3179D8
:103BB0008142EED8307C00212855641C05F804C0F1
:103BC000641C05F804C0641C05F804C0641C0DE006
:103BD000B0692F1950F82100491C2855C9B2020AB2
:103BE0007A70030CBB70000EF870241D307C884284
:103BF000EED8307F00272855641C05F804C0641CEB
:103C000005F804C0641C05F804C0641C12E0706A66
:103C100050F82700FCF71AFB29198046241D42465C
:103C200008602819716A51F82710FCF7EBFA7F1C1D
:103C30004444FFB2307FB842E9D82046BDE8F08165
:103C400070B50646007908700C46B068FCF7FEFABD
:103C50000546C4F80100B168601D2A46FCF7D2FA97
:103C6000681D70BD2DE9F0410546007908700C46CD
:103C7000A888000A4870A868FCF7E8FA0646C4F865
:103C80000200A968A01D3246FCF7BCFAE868B61D20
:103C9000FCF7DCFA0746A0193A46361D0760A01962
:103CA000E968FCF7AFFA28693E44FCF7CFFA07460B
:103CB000A0193A46361D0760A0192969FCF7A2FA37
:103CC0006869F11962186054030A5370050C957005
:103CD000060ED670081DBDE8F0812DE9F0410546BD
:103CE0000C46001D00F03DF80746A869FCF7AEFA47
:103CF0000646E01932463F1D0660E019A969FCF747
:103D000081FA3E44A11905F12000FFF7DBFD0644CE
:103D1000A11905F5CC70FFF708FE3044BDE8F0812D
:103D200010B502790B1D0A7008248288120A4A70A5
:103D30004268120C8A704268120ECA70027A0A71C6
:103D40000289120A4A718168090C99708068000E14
:103D5000D870204610BD00207047027901200A70FB
:103D6000704770B50C4605460279091D04F108003C
:103D70002270AA88120A62706A68120CA2706A68BD
:103D8000120EE2702A7A22712A89120A6271AA68D6
:103D9000120C8A70AA68120ECA70297B2172A98936
:103DA000090A6172E968090C8170E968090EC1703D
:103DB0002869FCF74BFA0646E060296904F1100017
:103DC0003246FCF71FFA06F1100070BD10B5040072
:103DD00007D1012405E0FCF753FA006800B9044854
:103DE0008047204600F034F80028F4D010BD0000D1
:103DF0007D02000830B528B1144C031F0020216853
:103E00000A4605E0084630BD9A4203D8104652687B
:103E1000002AF9D1002800D041680BD00468A3EB38
:103E20000005A54204D11B681C440346046002E05F
:103E3000436000E023603AB11C68D51AA54203D163
:103E400015682C441C6052685A6030BD2C0000205C
:103E50002DE9F04782460F4C10480D4E0E4F001BC7
:103E60004FF0000820F007054FF00109002211462D
:103E7000504600F03BF8002802D1306810B1002015
:103E8000BDE8F0873C60C4E90058C6F80090EDE753
:103E9000300000203C1E00202C0000203822002092
:103EA00002E008C8121F08C1002AFAD17047704703
:103EB000002001E001C1121F002AFBD17047000061
:103EC000064810B500F012FC0548002205490271B1
:103ED0000160BDE810400448FFF7BABB8004002031
:103EE000240000203C4E0008900700202DE9F041FE
:103EF0000B3020F00706104D19E02068B04215D3B2
:103F0000B0420AD9871B201DD4F80480FCF77AF947
:103F1000A019C0E90078286004E060682860201DCE
:103F2000FCF770F9201D2660BDE8F081251D2C6886
:103F3000002CE2D10020F7E72C000020BFF34F8FC8
:103F4000BFF36F8F614800245F490460086840F444
:103F500000300860BFF34F8FBFF36F8F5A48703047
:103F60000460BFF34F8F001F584D43F6FF761035A6
:103F70000068C0F34E32C0F3C90306EA4217184680
:103F800047EA807CC5F800C0401EF9D2521EF4D228
:103F9000BFF34F8F086840F480300860BFF34F8F45
:103FA000BFF36F8FFCF740FEFFF7DCF8FEF7C2FAB5
:103FB000FEF7A2FAFEF740FAFEF75EFAFEF77CFA89
:103FC000FEF776FBFEF7B0FBFEF7F4FBFEF72AFCEC
:103FD000FEF74CFCFEF7CAFBFEF788FB3C480021CD
:103FE000FEF7C8F83B480021FEF7C4F83948042121
:103FF000FEF7C0F838483C21FDF7CAFF37483C219E
:10400000FDF7C6FFFEF77EFCFEF794FC344DA86872
:1040100030B90C20FFF7DAFE324900F0B7F8A8609B
:104020000268E96851600068FEF7C1F8C5F8BC4253
:104030001420C5F8C042C5F8C842C5F8C442FFF70D
:10404000C5FE294929A20461A1F11C05C0E900218E
:10405000A8601420FFF7BAFE2A4926A20461C0E92D
:104060000021E8601E48A96800F02AFB1C48E968A6
:1040700000F026FB1820FFF7A9FE284E012224A3FA
:10408000224C2149C0E902360460C0E90412144AF6
:104090000021286102EB8103D3F86C3263B1491C23
:1040A0001429F7DB104C012028702079401C207166
:1040B0000120FCF7D2FBF8E702EB81026431C2F881
:1040C0006C024160EEE7000014ED00E050EF00E00C
:1040D00040040020C80300208C03002004040020BA
:1040E00080040020480000202400002074657374C0
:1040F000310000006F646F6D657472792F726177A3
:10410000000000009007002041340008C84D00085E
:10411000746F67676C655F6C65640000244E00080F
:104120002DE9F04704008A4616D054F8047CD4F8F0
:1041300000903E1F564500D956462046FFF75AFECE
:1041400005468846324621465046FFF7CFFE40B12D
:10415000C0F80090BDE8F087BDE8F0470846FFF7DB
:1041600077BE44E9017955B129686A18211F8A424E
:1041700002D9611B091F2960C5F80480EAE7024AD9
:10418000C2F80080E6E700002C00002070B505466C
:1041900001600420FFF71AFE0446286820604FF4EF
:1041A000CB70FFF713FE0026A0F89061A0F8926193
:1041B0004FF4C871A0F894110122214908602149E7
:1041C0002068FEF7A1F82068416E1F48C863206888
:1041D0000068016821F02001016004206C60FFF795
:1041E000F5FD2A6804460260012118485FF00002CC
:1041F000194B0170164806701648067002EB8200D3
:10420000C0EB0220C618002086F8FA103154401C7A
:10421000FA28FBDB521C142AF0DB93F8FA200E4933
:104220002068FEF7BBF820680068816821F08001F3
:1042300081602068016E0948C8632846AC6070BD83
:10424000400000204400002069470008450000208D
:104250004700002046000020980A0020C5470008BB
:10426000004870474551000840697047026900F1F5
:104270000C01084610470000004870472451000810
:10428000F0B587B0044630480021304AFF2600923E
:104290000D46CDE90401ADF804100290039000BF73
:1042A00004EB8507D7F81C02E8B10089ADF80400DB
:1042B000D7F81C0200680290D7F81C0207F50777B0
:1042C00040680168896888470390386840680168D9
:1042D000C9688847CDE9040638686A4601692068DC
:1042E0000368204698476D1C142DD9DB5FF000054C
:1042F00004EB8507D7F86C02F0B18088ADF80400B4
:10430000D7F86C0280680290D7F86C0207F51B772B
:10431000016889688847039038680168C9688847D8
:10432000CDE9040638680168496888470146206875
:104330006A460368204698476D1C142DD8DB01207F
:1043400084F8D00207B0F0BD87500008B04D0008D7
:104350003EB504466846FFF703FA20680A216A461C
:10436000036820469847FCF783FB20613EBD0000B0
:10437000FEB564290D46044603DB94F8D0020028FC
:104380003FD0106804F5917103681046984780B2D9
:10439000FF2184F81B11020AFE2684F81C6187188D
:1043A00084F81D01FFB284F81E21C7F1FF0784F8CD
:1043B0001F712B1284F82051002184F8213105222D
:1043C000C01D04E0A318521C93F81B31194482420B
:1043D000F8DBCA1780B201EB126222F0FF02891AE1
:1043E000421C204495B2FF2DC1F1FF0180F81B1142
:1043F00008D8A06804F21B11EAB2806800F006FB3E
:104400002846FEBD07490322074B204600938DF83E
:1044100004206A46029121680B68072198474FF0F3
:10442000FF30FEBD88500008984D00082DE9FE4F72
:104430000446FCF71DFBD4F8D8120546002642F6C8
:10444000F820691A814201D984F8D062D4F8BC02FC
:1044500028B1D4F8DC02A84201D2C4F8BC6204F14D
:104460001C00DFF84C9283464FF0010AD9F8001087
:10447000B1F99231B1F990219F1A03D5B1F8947135
:10448000BF1ADF1B3F043F0C0ED09A420AD0B1F88E
:104490009471531C885C1AB2BA42A1F8902101D1E0
:1044A000A1F89061002813DA94F8D00268B1D4F82A
:1044B000D41240F6C410691A814206D92046FFF78B
:1044C00047FFC4F8D452C4F8D8520020BDE8FE8F8C
:1044D000D4F8CC22D4F8BC120244C4F8CC22072968
:1044E00028D0A9B3012949D0022955D003295BD08E
:1044F000042961D0052968D006296FD00829B5D1D3
:104500006C48C4F8BC620240FF2AAFD1D4F8C402A0
:1045100098B30A287FD006286ED00B286DD004EB04
:104520008000D0F8DC000028A0D001680A68594655
:1045300090479BE7D4F8C8124A1CC4F8C82201F877
:104540000B00D4F8C002401EC4F8C0028ED150E067
:10455000FFE7FF2809D0FCF78BFA401B052885D917
:104560006FF0010084F8D062B0E705F11401504605
:10457000C4F8DC12C4F8BC0278E73FE0FE2809D09A
:1045800094F8D002C4F8BC620028D2D12046FFF7CC
:10459000DFFE6BE70220EDE7C4F8C002C4F8CC02EE
:1045A0000320C4F8C862E5E7D4F8C022042102EB76
:1045B0000020C4E9AF1059E73E480240FF2A02D06C
:1045C000C4F8BC6252E70520D4E7C4F8C40206214F
:1045D000C4F8BC12C4F8CC0248E7FFE7D4E9B01332
:1045E0000722C4F8BC22002903EB0020C4F8C4024F
:1045F0009FD10820BEE70EE04EE056E02046FFF7D0
:10460000A7FE2046FFF73CFEC4F8D4524FF0FF301F
:10461000C4F8D8525AE75F466846FFF7A1F8FCF79E
:1046200027FA2169A0EB010839466846FFF76EF8C2
:104630004FF47A7743F6095CB8FBF7F3B8FBF7F170
:10464000019A07FB138011440191029900FB0CF0C1
:1046500001EB80100290FCF70BFAB0FBF7F3B0FB14
:10466000F7F8DFF854C00199144A07FB1300A1EBD7
:104670000801491E616100FB0CF0029902EB8010F9
:104680000844A06104F11801081FFEF7C9FFFCF7F8
:10469000EFF9C4F8D802E9E604F539705946FEF797
:1046A0002FFF504684F8E0A2E0E684F8D062DDE611
:1046B00040000020FF000080F7C2FFFF00CA9A3BC5
:1046C0005FF0000200EB8203D3F81C3223B1521CCE
:1046D000142AF7DB0020704700EB82037832C3F81E
:1046E0001C12C1E902200120704700004FF4612232
:1046F0001B49C26000F5397201600021194B80F836
:10470000D01213601171D1601174916111775162EF
:104710004FEA010200EB8203521C142AC3F81C1258
:10472000F8D3002200EB8203521C142AC3F86C1247
:10473000F8D300228318521CFF2A1977FAD30022DB
:104740008318521CFF2A83F81B11F9D380F8E81252
:10475000C0F8F01280F8F412C0F8FC1270470000A4
:10476000E04D0008804D0008026800211268806B4F
:10477000D2050DD4A0F85A100268936823F04003C4
:10478000936090F86920322A16D0012280F86920BF
:104790000A480B4A00681278B0F99231C254B0F856
:1047A0009221521C12B2A0F89221B0F894319A4290
:1047B00001D1A0F8921170471222E7E740000020D3
:1047C000440000202DE9F04F016800220968806B49
:1047D000C9050BD4A0F8522001688A6822F0800233
:1047E0008A600068016841F0400179E001687E4B11
:1047F0008C6824F080048C60197859BB7B490C7854
:10480000641CE4B20C70142C00D10A70784A097848
:10481000127891421FD0026E01EB8104754BC4EBFC
:10482000012112681468194424F001031360026E18
:1048300091F8FA3012685360026E1268D160016814
:104840008A6842F080028A60016E09680A6842F054
:1048500001020A6001E001211970006E4FF0006C46
:10486000654A654B654C644D483B00686034DFF831
:1048700088B1D114DFF884E1303DDFF880A19042A7
:10488000DFF87C910BF1180B5E4E0EF1180E5E4FA7
:104890004FF4001227D9504505D0984203D0A042CA
:1048A00001D0584501D1202118E0704516D0A8420A
:1048B00014D0484512D0B04210D05049303188420F
:1048C00009D04D491839884205D04D4918318842E0
:1048D00001D0B84201D1114600E0614646484C384B
:1048E0000160BDE8F08FDFF8188108F1300840451D
:1048F00025D9504505D0984203D0A04201D0584553
:1049000001D1202118E0704516D0A84214D04845A6
:1049100012D0B04210D039493031884209D03649DE
:104920001839884205D036491831884201D0B8423A
:1049300001D1114600E061462F485038D0E7DFF83A
:10494000C080A8F13008404526D9504505D098428E
:1049500003D0A04201D0584501D1202118E0704574
:1049600016D0A84214D0484512D0B04210D02349E6
:104970003031884209D020491839884205D0204971
:104980001831884201D0B84201D1114600E0614699
:104990001A481038C160A4E7504505D0984203D0AA
:1049A000A04201D0584501D1202118E0704516D011
:1049B000A84214D0484512D0B04210D00F4930312F
:1049C000884209D00C491839884205D00C49183161
:1049D000884201D0B84201D1114600E06146074843
:1049E000103881607DE7000045000020470000206E
:1049F00046000020980A00205864024010600240DF
:104A00008860024088640240A06402402DE9FC5F97
:104A10009C4D04469C4F28783B78461C00E01BB90F
:104A2000B342FDD01328FAD0984E00EB8003C3EBBD
:104A30000020304480F8FA20FBF7E4FB29780020BE
:104A4000491CC9B22970142900D12870904A1178E4
:104A500000297DD02B7839785D1EA94202D0132918
:104A600001D103B9107001EB81022068C2EB012172
:104A7000884DDFF820B2DFF81CC2483D0368881972
:104A8000854E0BF1180B019000906036824A9868B1
:104A9000D11420F08000986020688B02DFF8F49138
:104AA0000F04DFF8F4E1DFF8ECA1A9F11809006EBA
:104AB0000EF1900E0AF1480A0068D0F8008028F044
:104AC0000108C0F80080D4F800800198D8F8608010
:104AD00090F8FA00D8F80080C8F804002068006E4A
:104AE000D0F800800098C8F80C0020680068D0F862
:104AF000088048F08008C0F808802068006E0068D0
:104B0000D0F8008048F00108C0F800802068006EEE
:104B1000006860452BD9904205D0A84203D0B0422E
:104B200001D0584501D120211EE05B4A1832904245
:104B30001AD0584A303A904216D0574A78329042AA
:104B400012D0544A303290420ED05349303100E0F6
:104B50003BE0884205D0484503D0704501D0504520
:104B600001D1194600E039464A484C382CE04A4CFD
:104B7000A834A0422BD9904205D0A84203D0B0421D
:104B800001D0584501D120211CE0434A18329042FF
:104B900018D0404A303A904214D03F4A783290427E
:104BA00010D03C4A303290420CD03B4930318842E0
:104BB00005D0484503D0704501D0504501D1194674
:104BC00000E03946334850380160BDE8FC9FDFF80B
:104BD000C8C0314C0CF1480C103C604528D99042BB
:104BE00005D0A84203D0B04201D0584501D12021C0
:104BF0001CE0294A1832904218D0264A303A904296
:104C000014D0254A7832904210D0224A3032904255
:104C10000CD021493031884205D0484503D0704539
:104C200001D0504501D1194600E03946E160CCE79A
:104C3000904205D0A84203D0B04201D0584501D1DE
:104C400020211CE0144A1832904218D0114A303A00
:104C5000904214D0104A7832904210D00D4A30322F
:104C600090420CD00C493031884205D0484503D0E1
:104C7000704501D0504501D1194600E03946A16088
:104C8000A3E700004600002047000020980A00200B
:104C900045000020586402401060024000000000FF
:104CA00001020304010203040607080900061016A6
:104CB00000061016726F7373657269616C5F6D73B5
:104CC00067732F52657175657374506172616D0001
:104CD0000000000000000000A137000800000000F4
:104CE000753400086D34000800000000000000006A
:104CF000C538000800000000853400087D34000835
:104D000000000000000000002B3900080000000037
:104D1000953400088D3400080000000000000000F9
:104D20009139000800000000A53400089D340008F7
:104D30000000000000000000AD3900080000000085
:104D4000B5340008AD340008000000000000000089
:104D5000813A000800000000C5340008BD34000896
:104D600000000000000000009D3A00080000000064
:104D7000D5340008CD340008000000000000000019
:104D8000713B000801350008F9350008F1350008CD
:104D90000000000000000000413C0008000000008E
:104DA000093600080136000800000000000000007D
:104DB000653C0008000000001936000811360008A4
:104DC00000000000000000006D4200086942000879
:104DD0006142000879420008000000000000000065
:104DE000714300082D44000800000000000000008E
:104DF00000000000DB3C000800000000493600080D
:104E0000413600080000000000000000213D0008BD
:104E10000D3700085937000851370008000000001E
:104E200000000000573D000800000000793700082E
:104E30007137000800000000000000005B3D000822
:104E400000000000893700088137000800000000DA
:104E500000000000633D00080000000099370008D2
:104E60009137000861373739383739666164663001
:104E7000313630373334663930366238633139632E
:104E8000373030340067656F6D657472795F6D73AC
:104E900067732F5175617465726E696F6E0063324E
:104EA000336538343863663162373533336138649B
:104EB00037633235393037336139376536660067E5
:104EC000656F6D657472795F6D7367732F506F7363
:104ED0006557697468436F76617269616E636500D6
:104EE000316665386132386536383930613463632C
:104EF00033616534633363613563376438326536F3
:104F00000067656F6D657472795F6D7367732F5499
:104F10007769737457697468436F76617269616EFB
:104F200063650065343564343561356131636535F9
:104F3000393762323439653233666233306663380A
:104F40003731660067656F6D657472795F6D736781
:104F5000732F506F736500346138343262363566B2
:104F6000343133303834646332623130666234381D
:104F7000346561376631370067656F6D65747279C6
:104F80005F6D7367732F506F696E740039663139C6
:104F900035663838313234366664666132373938CE
:104FA0006431643365656263613834610067656FDD
:104FB0006D657472795F6D7367732F54776973745D
:104FC0000034613834326236356634313330383447
:104FD0006463326231306662343834656137663119
:104FE000370067656F6D657472795F6D7367732FD6
:104FF000566563746F7233003966306539386264A0
:10500000613635393831393836646466353361662E
:10501000613761343065343900313161626437336E
:1050200031633235393333323631636436313833B4
:1050300062643132643632393500726F737365726F
:1050400069616C5F6D7367732F4C6F6700306164CB
:10505000353166383866633434383932663863310E
:105060003036383430373736343630303500726FBA
:105070007373657269616C5F6D7367732F546F70C2
:105080006963496E666F00004D65737361676520E3
:1050900066726F6D206465766963652064726F70F7
:1050A0007065643A206D657373616765206C617229
:1050B000676572207468616E206275666665722E1F
:1050C00000636435653733643139306437343161B6
:1050D0003266393265383165646135373361636111
:1050E00037006E61765F6D7367732F4F646F6D6508
:1050F0007472790000636437313636633734633550
:1051000035326333313166626363326665356137E8
:105110006263323839007374645F6D7367732F5440
:10512000696D6500643431643863643938663030E1
:105130006232303465393830303939386563663831
:1051400034323765007374645F6D7367732F456D18
:1051500070747900376338313634323239653764E8
:10516000326331376562393565393233313631373B
:1051700066646565007374645F6D7367732F55496A
:105180006E7438003231373664656361656362631B
:105190006537386162633362393665663034396643
:1051A00061626564007374645F6D7367732F486533
:1051B0006164657200000000DC51000800000020FE
:1051C00048000000A03E00082452000848000020CB
:1051D000F0230000B03E0008E9ECFFFF00000000F3
:1051E0000024F400000000000000000000000000A7
:1051F00000000000000000000000000000000000AF
:10520000000000000000000000000000000000009E
:10521000000000000000000000000000000000008E
:04522000000000008A
:04000005080001C925
:00000001FF
